{
  "transactions": [
    {
      "hash": "0x1c6e9cd8360eccc438843000caf0a16f7eff70d12a36de6fb330969c8cc8ace7",
      "transactionType": "CALL",
      "contractName": null,
      "contractAddress": "0xc2132D05D31c914a87C6611C10748AEb04B58e8F",
      "function": "approve(address,uint256)",
      "arguments": [
        "0xcB0aFD1A7b17E0C85740156eFe3F0D32a7fcc0Dd",
        "2000000"
      ],
      "transaction": {
        "type": "0x02",
        "from": "0x6fec51b4a3f9c68e45822b6c8adcac3a2863f133",
        "to": "0xc2132d05d31c914a87c6611c10748aeb04b58e8f",
        "gas": "0x11712",
        "value": "0x0",
        "data": "0x095ea7b3000000000000000000000000cb0afd1a7b17e0c85740156efe3f0d32a7fcc0dd00000000000000000000000000000000000000000000000000000000001e8480",
        "nonce": "0x157",
        "accessList": []
      },
      "additionalContracts": [],
      "isFixedGasLimit": false
    },
    {
      "hash": "0x5a86d57eedfe99cb05dd9155a9a8eb82be80093401c6b4c94e0c9019bab58c63",
      "transactionType": "CALL",
      "contractName": null,
      "contractAddress": "0xcB0aFD1A7b17E0C85740156eFe3F0D32a7fcc0Dd",
      "function": "buyTokens(uint256)",
      "arguments": [
        "2000000"
      ],
      "transaction": {
        "type": "0x02",
        "from": "0x6fec51b4a3f9c68e45822b6c8adcac3a2863f133",
        "to": "0xcb0afd1a7b17e0c85740156efe3f0d32a7fcc0dd",
        "gas": "0x26fa1",
        "value": "0x0",
        "data": "0x3610724e00000000000000000000000000000000000000000000000000000000001e8480",
        "nonce": "0x158",
        "accessList": []
      },
      "additionalContracts": [],
      "isFixedGasLimit": false
    }
  ],
  "receipts": [
    {
      "transactionHash": "0x1c6e9cd8360eccc438843000caf0a16f7eff70d12a36de6fb330969c8cc8ace7",
      "transactionIndex": "0x3f",
      "blockHash": "0xce354ec57ea088406a7c82c87589d5511d84a01007d4eda0f115d8eb9efefe2f",
      "blockNumber": "0x35e0265",
      "from": "0x6FEC51b4a3F9c68E45822B6C8aDcac3A2863f133",
      "to": "0xc2132D05D31c914a87C6611C10748AEb04B58e8F",
      "cumulativeGasUsed": "0x968327",
      "gasUsed": "0xca0c",
      "contractAddress": null,
      "logs": [
        {
          "address": "0xc2132D05D31c914a87C6611C10748AEb04B58e8F",
          "topics": [
            "0x8c5be1e5ebec7d5bd14f71427d1e84f3dd0314c0f7b2291e5b200ac8c7c3b925",
            "0x0000000000000000000000006fec51b4a3f9c68e45822b6c8adcac3a2863f133",
            "0x000000000000000000000000cb0afd1a7b17e0c85740156efe3f0d32a7fcc0dd"
          ],
          "data": "0x00000000000000000000000000000000000000000000000000000000001e8480",
          "blockHash": "0xce354ec57ea088406a7c82c87589d5511d84a01007d4eda0f115d8eb9efefe2f",
          "blockNumber": "0x35e0265",
          "transactionHash": "0x1c6e9cd8360eccc438843000caf0a16f7eff70d12a36de6fb330969c8cc8ace7",
          "transactionIndex": "0x3f",
          "logIndex": "0x118",
          "removed": false
        },
        {
          "address": "0x0000000000000000000000000000000000001010",
          "topics": [
            "0x4dfe1bbbcf077ddc3e01291eea2d5c70c2b422b415d95645b9adcfd678cb1d63",
            "0x0000000000000000000000000000000000000000000000000000000000001010",
            "0x0000000000000000000000006fec51b4a3f9c68e45822b6c8adcac3a2863f133",
            "0x00000000000000000000000002f70172f7f490653665c9bfac0666147c8af1f5"
          ],
          "data": "0x000000000000000000000000000000000000000000000000000597d53be2d69400000000000000000000000000000000000000000000000064a3aee43ec16b72000000000000000000000000000000000000000000000078c23ae9658b3d678b000000000000000000000000000000000000000000000000649e170f02de94de000000000000000000000000000000000000000000000078c240813ac7203e1f",
          "blockHash": "0xce354ec57ea088406a7c82c87589d5511d84a01007d4eda0f115d8eb9efefe2f",
          "blockNumber": "0x35e0265",
          "transactionHash": "0x1c6e9cd8360eccc438843000caf0a16f7eff70d12a36de6fb330969c8cc8ace7",
          "transactionIndex": "0x3f",
          "logIndex": "0x119",
          "removed": false
        }
      ],
      "status": "0x1",
      "logsBloom": "0x00000000000000000000000000000000000000000000000000000000000000000000000000000000000000000000000100008000020000000000000040200000000000000002000000000000000000800000000000000000000110000000000000000000000000000000000000000000000000000000000080000000000000000000000000080000000000000000000000000020000000000000000000000000220000000000000000000000000000000000000000000000000000000000004000001000000000000001000000000000400000000000000000100000000000000010000000080000000000000000000000000000000000000000000000100000",
      "type": "0x2",
      "effectiveGasPrice": "0xe891dbbe2"
    },
    {
      "transactionHash": "0x5a86d57eedfe99cb05dd9155a9a8eb82be80093401c6b4c94e0c9019bab58c63",
      "transactionIndex": "0x40",
      "blockHash": "0xce354ec57ea088406a7c82c87589d5511d84a01007d4eda0f115d8eb9efefe2f",
      "blockNumber": "0x35e0265",
      "from": "0x6FEC51b4a3F9c68E45822B6C8aDcac3A2863f133",
      "to": "0xcB0aFD1A7b17E0C85740156eFe3F0D32a7fcc0Dd",
      "cumulativeGasUsed": "0x982d91",
      "gasUsed": "0x1aa6a",
      "contractAddress": null,
      "logs": [
        {
          "address": "0xcB0aFD1A7b17E0C85740156eFe3F0D32a7fcc0Dd",
          "topics": [
            "0xdeb0668e856be4237a3ff00cd22720a00e0a8b0772c2deece2a306ad60772f30"
          ],
          "data": "0x0000000000000000000000000000000000000000000000000000000005f56150",
          "blockHash": "0xce354ec57ea088406a7c82c87589d5511d84a01007d4eda0f115d8eb9efefe2f",
          "blockNumber": "0x35e0265",
          "transactionHash": "0x5a86d57eedfe99cb05dd9155a9a8eb82be80093401c6b4c94e0c9019bab58c63",
          "transactionIndex": "0x40",
          "logIndex": "0x11a",
          "removed": false
        },
        {
          "address": "0xc2132D05D31c914a87C6611C10748AEb04B58e8F",
          "topics": [
            "0xddf252ad1be2c89b69c2b068fc378daa952ba7f163c4a11628f55a4df523b3ef",
            "0x0000000000000000000000006fec51b4a3f9c68e45822b6c8adcac3a2863f133",
            "0x000000000000000000000000cb0afd1a7b17e0c85740156efe3f0d32a7fcc0dd"
          ],
          "data": "0x00000000000000000000000000000000000000000000000000000000001e8480",
          "blockHash": "0xce354ec57ea088406a7c82c87589d5511d84a01007d4eda0f115d8eb9efefe2f",
          "blockNumber": "0x35e0265",
          "transactionHash": "0x5a86d57eedfe99cb05dd9155a9a8eb82be80093401c6b4c94e0c9019bab58c63",
          "transactionIndex": "0x40",
          "logIndex": "0x11b",
          "removed": false
        },
        {
          "address": "0xc2132D05D31c914a87C6611C10748AEb04B58e8F",
          "topics": [
            "0x8c5be1e5ebec7d5bd14f71427d1e84f3dd0314c0f7b2291e5b200ac8c7c3b925",
            "0x0000000000000000000000006fec51b4a3f9c68e45822b6c8adcac3a2863f133",
            "0x000000000000000000000000cb0afd1a7b17e0c85740156efe3f0d32a7fcc0dd"
          ],
          "data": "0x0000000000000000000000000000000000000000000000000000000000000000",
          "blockHash": "0xce354ec57ea088406a7c82c87589d5511d84a01007d4eda0f115d8eb9efefe2f",
          "blockNumber": "0x35e0265",
          "transactionHash": "0x5a86d57eedfe99cb05dd9155a9a8eb82be80093401c6b4c94e0c9019bab58c63",
          "transactionIndex": "0x40",
          "logIndex": "0x11c",
          "removed": false
        },
        {
          "address": "0xf93A0FCdE9304CABefb004540838FF5234789429",
          "topics": [
            "0xddf252ad1be2c89b69c2b068fc378daa952ba7f163c4a11628f55a4df523b3ef",
            "0x000000000000000000000000cb0afd1a7b17e0c85740156efe3f0d32a7fcc0dd",
            "0x0000000000000000000000006fec51b4a3f9c68e45822b6c8adcac3a2863f133"
          ],
          "data": "0x0000000000000000000000000000000000000000000000001bbf1a9811192000",
          "blockHash": "0xce354ec57ea088406a7c82c87589d5511d84a01007d4eda0f115d8eb9efefe2f",
          "blockNumber": "0x35e0265",
          "transactionHash": "0x5a86d57eedfe99cb05dd9155a9a8eb82be80093401c6b4c94e0c9019bab58c63",
          "transactionIndex": "0x40",
          "logIndex": "0x11d",
          "removed": false
        },
        {
          "address": "0xcB0aFD1A7b17E0C85740156eFe3F0D32a7fcc0Dd",
          "topics": [
            "0x8fafebcaf9d154343dad25669bfa277f4fbacd7ac6b0c4fed522580e040a0f33",
            "0x0000000000000000000000006fec51b4a3f9c68e45822b6c8adcac3a2863f133"
          ],
          "data": "0x00000000000000000000000000000000000000000000000000000000001e84800000000000000000000000000000000000000000000000001bbf1a9811192000",
          "blockHash": "0xce354ec57ea088406a7c82c87589d5511d84a01007d4eda0f115d8eb9efefe2f",
          "blockNumber": "0x35e0265",
          "transactionHash": "0x5a86d57eedfe99cb05dd9155a9a8eb82be80093401c6b4c94e0c9019bab58c63",
          "transactionIndex": "0x40",
          "logIndex": "0x11e",
          "removed": false
        },
        {
          "address": "0x0000000000000000000000000000000000001010",
          "topics": [
            "0x4dfe1bbbcf077ddc3e01291eea2d5c70c2b422b415d95645b9adcfd678cb1d63",
            "0x0000000000000000000000000000000000000000000000000000000000001010",
            "0x0000000000000000000000006fec51b4a3f9c68e45822b6c8adcac3a2863f133",
            "0x00000000000000000000000002f70172f7f490653665c9bfac0666147c8af1f5"
          ],
          "data": "0x000000000000000000000000000000000000000000000000000bcdd7839abdc6000000000000000000000000000000000000000000000000649836045b1c48da000000000000000000000000000000000000000000000078c240813ac7203e1f000000000000000000000000000000000000000000000000648c682cd7818b14000000000000000000000000000000000000000000000078c24c4f124abafbe5",
          "blockHash": "0xce354ec57ea088406a7c82c87589d5511d84a01007d4eda0f115d8eb9efefe2f",
          "blockNumber": "0x35e0265",
          "transactionHash": "0x5a86d57eedfe99cb05dd9155a9a8eb82be80093401c6b4c94e0c9019bab58c63",
          "transactionIndex": "0x40",
          "logIndex": "0x11f",
          "removed": false
        }
      ],
      "status": "0x1",
      "logsBloom": "0x00000000000000000000000001000020000000000000000000040000000000000000000000000000000000000000000100008020020000000000000040200000000000000002000000000008000000800000000000100000000110000000040080000000000000000000000000000000080000000020000080000010000000000000000000080000000000000000000000000020000000000000000000000000220000000000000000000000000000040000000000000000000000000000004000001002000000000001000000000000400000000000000000100000000000000010000000080000002000000000000000000000000000000000000000100000",
      "type": "0x2",
      "effectiveGasPrice": "0xe891dbbe2"
    }
  ],
  "libraries": [],
  "pending": [],
  "returns": {},
  "timestamp": 1714650244,
  "chain": 137,
  "commit": "ce1cf17"
}