{
  "transactions": [
    {
      "hash": "0x04a4de51ec5edbb5a4edaf96e958845834061366f4cd72b97f1cdfe77489fb14",
      "transactionType": "CALL",
      "contractName": null,
      "contractAddress": "0xc2132D05D31c914a87C6611C10748AEb04B58e8F",
      "function": "approve(address,uint256)",
      "arguments": [
        "0x2C12242E94d85153135e645b3c7e9FC39a9356e8",
        "2000000"
      ],
      "transaction": {
        "type": "0x02",
        "from": "0x6fec51b4a3f9c68e45822b6c8adcac3a2863f133",
        "to": "0xc2132d05d31c914a87c6611c10748aeb04b58e8f",
        "gas": "0x11712",
        "value": "0x0",
        "data": "0x095ea7b30000000000000000000000002c12242e94d85153135e645b3c7e9fc39a9356e800000000000000000000000000000000000000000000000000000000001e8480",
        "nonce": "0x140",
        "accessList": []
      },
      "additionalContracts": [],
      "isFixedGasLimit": false
    },
    {
      "hash": "0x49ae0a6a0f329a75b25e3c30ac8b099d8dfcbbf6ccd9532ed95e8ecaafb5f7d7",
      "transactionType": "CALL",
      "contractName": null,
      "contractAddress": "0x2C12242E94d85153135e645b3c7e9FC39a9356e8",
      "function": "buyTokens(uint256)",
      "arguments": [
        "2000000"
      ],
      "transaction": {
        "type": "0x02",
        "from": "0x6fec51b4a3f9c68e45822b6c8adcac3a2863f133",
        "to": "0x2c12242e94d85153135e645b3c7e9fc39a9356e8",
        "gas": "0x25303",
        "value": "0x0",
        "data": "0x3610724e00000000000000000000000000000000000000000000000000000000001e8480",
        "nonce": "0x141",
        "accessList": []
      },
      "additionalContracts": [],
      "isFixedGasLimit": false
    }
  ],
  "receipts": [
    {
      "transactionHash": "0x04a4de51ec5edbb5a4edaf96e958845834061366f4cd72b97f1cdfe77489fb14",
      "transactionIndex": "0x60",
      "blockHash": "0x6da4a093989de5997d4a2a049595697ef5359663c397d43906430dc92177f8be",
      "blockNumber": "0x359fa7a",
      "from": "0x6FEC51b4a3F9c68E45822B6C8aDcac3A2863f133",
      "to": "0xc2132D05D31c914a87C6611C10748AEb04B58e8F",
      "cumulativeGasUsed": "0xf0fef5",
      "gasUsed": "0xca0c",
      "contractAddress": null,
      "logs": [
        {
          "address": "0xc2132D05D31c914a87C6611C10748AEb04B58e8F",
          "topics": [
            "0x8c5be1e5ebec7d5bd14f71427d1e84f3dd0314c0f7b2291e5b200ac8c7c3b925",
            "0x0000000000000000000000006fec51b4a3f9c68e45822b6c8adcac3a2863f133",
            "0x0000000000000000000000002c12242e94d85153135e645b3c7e9fc39a9356e8"
          ],
          "data": "0x00000000000000000000000000000000000000000000000000000000001e8480",
          "blockHash": "0x6da4a093989de5997d4a2a049595697ef5359663c397d43906430dc92177f8be",
          "blockNumber": "0x359fa7a",
          "transactionHash": "0x04a4de51ec5edbb5a4edaf96e958845834061366f4cd72b97f1cdfe77489fb14",
          "transactionIndex": "0x60",
          "logIndex": "0x1d9",
          "removed": false
        },
        {
          "address": "0x0000000000000000000000000000000000001010",
          "topics": [
            "0x4dfe1bbbcf077ddc3e01291eea2d5c70c2b422b415d95645b9adcfd678cb1d63",
            "0x0000000000000000000000000000000000000000000000000000000000001010",
            "0x0000000000000000000000006fec51b4a3f9c68e45822b6c8adcac3a2863f133",
            "0x000000000000000000000000a8b52f02108aa5f4b675bdcc973760022d7c6020"
          ],
          "data": "0x000000000000000000000000000000000000000000000000000591d3ff3cf3b800000000000000000000000000000000000000000000000066ee1eab1f32357300000000000000000000000000000000000000000000044db1cfc4368fecd69c00000000000000000000000000000000000000000000000066e88cd71ff541bb00000000000000000000000000000000000000000000044db1d5560a8f29ca54",
          "blockHash": "0x6da4a093989de5997d4a2a049595697ef5359663c397d43906430dc92177f8be",
          "blockNumber": "0x359fa7a",
          "transactionHash": "0x04a4de51ec5edbb5a4edaf96e958845834061366f4cd72b97f1cdfe77489fb14",
          "transactionIndex": "0x60",
          "logIndex": "0x1da",
          "removed": false
        }
      ],
      "status": "0x1",
      "logsBloom": "0x00000000000000000000000000000000000000000000000000000000000000000000000000000000000000000002000100008000020000000000000000200000000000000000000000000000000000800000000000000000000100000000000000000000000000000100000000000000000000000000000080000000000000000000000000080000000000000000000000000020000000040000000000000000220000000000004000000000000000000000000000000000000000000000004000000000000000000001000000000000400000000000000000100000000000000010000000000000000000000000000000004000000000000000000000100000",
      "type": "0x2",
      "effectiveGasPrice": "0x12b66fd502"
    },
    {
      "transactionHash": "0x49ae0a6a0f329a75b25e3c30ac8b099d8dfcbbf6ccd9532ed95e8ecaafb5f7d7",
      "transactionIndex": "0x9f",
      "blockHash": "0xc83aae6d2b14f9c7a6ed52ed979c33225eca35a209344013e8598b3732d0d8c7",
      "blockNumber": "0x359fa80",
      "from": "0x6FEC51b4a3F9c68E45822B6C8aDcac3A2863f133",
      "to": "0x2C12242E94d85153135e645b3c7e9FC39a9356e8",
      "cumulativeGasUsed": "0xfd9228",
      "gasUsed": "0x1aec8",
      "contractAddress": null,
      "logs": [
        {
          "address": "0xc2132D05D31c914a87C6611C10748AEb04B58e8F",
          "topics": [
            "0xddf252ad1be2c89b69c2b068fc378daa952ba7f163c4a11628f55a4df523b3ef",
            "0x0000000000000000000000006fec51b4a3f9c68e45822b6c8adcac3a2863f133",
            "0x0000000000000000000000002c12242e94d85153135e645b3c7e9fc39a9356e8"
          ],
          "data": "0x00000000000000000000000000000000000000000000000000000000001e8480",
          "blockHash": "0xc83aae6d2b14f9c7a6ed52ed979c33225eca35a209344013e8598b3732d0d8c7",
          "blockNumber": "0x359fa80",
          "transactionHash": "0x49ae0a6a0f329a75b25e3c30ac8b099d8dfcbbf6ccd9532ed95e8ecaafb5f7d7",
          "transactionIndex": "0x9f",
          "logIndex": "0x30d",
          "removed": false
        },
        {
          "address": "0xc2132D05D31c914a87C6611C10748AEb04B58e8F",
          "topics": [
            "0x8c5be1e5ebec7d5bd14f71427d1e84f3dd0314c0f7b2291e5b200ac8c7c3b925",
            "0x0000000000000000000000006fec51b4a3f9c68e45822b6c8adcac3a2863f133",
            "0x0000000000000000000000002c12242e94d85153135e645b3c7e9fc39a9356e8"
          ],
          "data": "0x0000000000000000000000000000000000000000000000000000000000000000",
          "blockHash": "0xc83aae6d2b14f9c7a6ed52ed979c33225eca35a209344013e8598b3732d0d8c7",
          "blockNumber": "0x359fa80",
          "transactionHash": "0x49ae0a6a0f329a75b25e3c30ac8b099d8dfcbbf6ccd9532ed95e8ecaafb5f7d7",
          "transactionIndex": "0x9f",
          "logIndex": "0x30e",
          "removed": false
        },
        {
          "address": "0xf93A0FCdE9304CABefb004540838FF5234789429",
          "topics": [
            "0xddf252ad1be2c89b69c2b068fc378daa952ba7f163c4a11628f55a4df523b3ef",
            "0x0000000000000000000000002c12242e94d85153135e645b3c7e9fc39a9356e8",
            "0x0000000000000000000000006fec51b4a3f9c68e45822b6c8adcac3a2863f133"
          ],
          "data": "0x00000000000000000000000000000000000000000000000000000000001e82d1",
          "blockHash": "0xc83aae6d2b14f9c7a6ed52ed979c33225eca35a209344013e8598b3732d0d8c7",
          "blockNumber": "0x359fa80",
          "transactionHash": "0x49ae0a6a0f329a75b25e3c30ac8b099d8dfcbbf6ccd9532ed95e8ecaafb5f7d7",
          "transactionIndex": "0x9f",
          "logIndex": "0x30f",
          "removed": false
        },
        {
          "address": "0x2C12242E94d85153135e645b3c7e9FC39a9356e8",
          "topics": [
            "0x8fafebcaf9d154343dad25669bfa277f4fbacd7ac6b0c4fed522580e040a0f33",
            "0x0000000000000000000000006fec51b4a3f9c68e45822b6c8adcac3a2863f133"
          ],
          "data": "0x00000000000000000000000000000000000000000000000000000000001e848000000000000000000000000000000000000000000000000000000000001e82d1",
          "blockHash": "0xc83aae6d2b14f9c7a6ed52ed979c33225eca35a209344013e8598b3732d0d8c7",
          "blockNumber": "0x359fa80",
          "transactionHash": "0x49ae0a6a0f329a75b25e3c30ac8b099d8dfcbbf6ccd9532ed95e8ecaafb5f7d7",
          "transactionIndex": "0x9f",
          "logIndex": "0x310",
          "removed": false
        },
        {
          "address": "0x0000000000000000000000000000000000001010",
          "topics": [
            "0x4dfe1bbbcf077ddc3e01291eea2d5c70c2b422b415d95645b9adcfd678cb1d63",
            "0x0000000000000000000000000000000000000000000000000000000000001010",
            "0x0000000000000000000000006fec51b4a3f9c68e45822b6c8adcac3a2863f133",
            "0x000000000000000000000000ec20607aa654d823dd01beb8780a44863c57ed07"
          ],
          "data": "0x000000000000000000000000000000000000000000000000000bdffcda9a075000000000000000000000000000000000000000000000000066df59d653e0a55b00000000000000000000000000000000000000000000015d16ecf0a68b624b3e00000000000000000000000000000000000000000000000066d379d979469e0b00000000000000000000000000000000000000000000015d16f8d0a365fc528e",
          "blockHash": "0xc83aae6d2b14f9c7a6ed52ed979c33225eca35a209344013e8598b3732d0d8c7",
          "blockNumber": "0x359fa80",
          "transactionHash": "0x49ae0a6a0f329a75b25e3c30ac8b099d8dfcbbf6ccd9532ed95e8ecaafb5f7d7",
          "transactionIndex": "0x9f",
          "logIndex": "0x311",
          "removed": false
        }
      ],
      "status": "0x1",
      "logsBloom": "0x00000000000000000000000401000000000000000000000000040000000000000000000000000000000000000000000100008020020000000000000000200000000000000000000000000008000000800000000000100000000100000000000000000000000000000102000000000000000000002020000080000010000000000000000000080000000000000000000000000020000000000000000000000000220000000000000000000000000000040000000000000000000000000000004000000002000000000001000000000001400000000000000000100000000000000810000002000000000000000000000000004000000000000000000000100000",
      "type": "0x2",
      "effectiveGasPrice": "0x1293fa7db5"
    }
  ],
  "libraries": [],
  "pending": [],
  "returns": {},
  "timestamp": 1714029528,
  "chain": 137,
  "commit": "ce1cf17"
}