{
  "transactions": [
    {
      "hash": "0xda63835c09a049f74556b7ac374f788038d1ba602eb2f28f07996cdb11cbb28d",
      "transactionType": "CALL",
      "contractName": null,
      "contractAddress": "0xc2132D05D31c914a87C6611C10748AEb04B58e8F",
      "function": "approve(address,uint256)",
      "arguments": [
        "0x807D436d4fCff349B2733d9d67E14c662eB285d6",
        "2000000"
      ],
      "transaction": {
        "type": "0x02",
        "from": "0x6fec51b4a3f9c68e45822b6c8adcac3a2863f133",
        "to": "0xc2132d05d31c914a87c6611c10748aeb04b58e8f",
        "gas": "0x11712",
        "value": "0x0",
        "data": "0x095ea7b3000000000000000000000000807d436d4fcff349b2733d9d67e14c662eb285d600000000000000000000000000000000000000000000000000000000001e8480",
        "nonce": "0x146",
        "accessList": []
      },
      "additionalContracts": [],
      "isFixedGasLimit": false
    },
    {
      "hash": "0xab8b253c37514c2b0ff12b7800dde51fcaf3904b9d9d5a2f02402b10a22dce88",
      "transactionType": "CALL",
      "contractName": null,
      "contractAddress": "0x807D436d4fCff349B2733d9d67E14c662eB285d6",
      "function": "buyTokens(uint256)",
      "arguments": [
        "2000000"
      ],
      "transaction": {
        "type": "0x02",
        "from": "0x6fec51b4a3f9c68e45822b6c8adcac3a2863f133",
        "to": "0x807d436d4fcff349b2733d9d67e14c662eb285d6",
        "gas": "0x2764c",
        "value": "0x0",
        "data": "0x3610724e00000000000000000000000000000000000000000000000000000000001e8480",
        "nonce": "0x147",
        "accessList": []
      },
      "additionalContracts": [],
      "isFixedGasLimit": false
    }
  ],
  "receipts": [],
  "libraries": [],
  "pending": [],
  "returns": {},
  "timestamp": 1714645815,
  "chain": 137,
  "commit": "ce1cf17"
}