{
  "transactions": [
    {
      "hash": "0x3bfbd6b3473b304ab17cb08372874bd78d45b2e1f41b4ac5f17f6b7fcc8b485e",
      "transactionType": "CALL",
      "contractName": null,
      "contractAddress": "0xc2132D05D31c914a87C6611C10748AEb04B58e8F",
      "function": "approve(address,uint256)",
      "arguments": [
        "0xA531F4E0b54B7FFBc8F925dE01A57cDE94Ffd7D5",
        "2000000"
      ],
      "transaction": {
        "type": "0x02",
        "from": "0x6fec51b4a3f9c68e45822b6c8adcac3a2863f133",
        "to": "0xc2132d05d31c914a87c6611c10748aeb04b58e8f",
        "gas": "0x11712",
        "value": "0x0",
        "data": "0x095ea7b3000000000000000000000000a531f4e0b54b7ffbc8f925de01a57cde94ffd7d500000000000000000000000000000000000000000000000000000000001e8480",
        "nonce": "0x150",
        "accessList": []
      },
      "additionalContracts": [],
      "isFixedGasLimit": false
    },
    {
      "hash": "0x39d6ea2d60478deff1cf91b15f085f9c3975b30b0dad8ff3c9697587e6e566bf",
      "transactionType": "CALL",
      "contractName": null,
      "contractAddress": "0xA531F4E0b54B7FFBc8F925dE01A57cDE94Ffd7D5",
      "function": "buyTokens(uint256)",
      "arguments": [
        "2000000"
      ],
      "transaction": {
        "type": "0x02",
        "from": "0x6fec51b4a3f9c68e45822b6c8adcac3a2863f133",
        "to": "0xa531f4e0b54b7ffbc8f925de01a57cde94ffd7d5",
        "gas": "0x1f9cd",
        "value": "0x0",
        "data": "0x3610724e00000000000000000000000000000000000000000000000000000000001e8480",
        "nonce": "0x151",
        "accessList": []
      },
      "additionalContracts": [],
      "isFixedGasLimit": false
    }
  ],
  "receipts": [
    {
      "transactionHash": "0x3bfbd6b3473b304ab17cb08372874bd78d45b2e1f41b4ac5f17f6b7fcc8b485e",
      "transactionIndex": "0x57",
      "blockHash": "0x5f9b55a82b6c80301487e0136c7b15e0ea5713012f3e7da1413491a3c32d7d9c",
      "blockNumber": "0x35dfef0",
      "from": "0x6FEC51b4a3F9c68E45822B6C8aDcac3A2863f133",
      "to": "0xc2132D05D31c914a87C6611C10748AEb04B58e8F",
      "cumulativeGasUsed": "0xe33e99",
      "gasUsed": "0xca0c",
      "contractAddress": null,
      "logs": [
        {
          "address": "0xc2132D05D31c914a87C6611C10748AEb04B58e8F",
          "topics": [
            "0x8c5be1e5ebec7d5bd14f71427d1e84f3dd0314c0f7b2291e5b200ac8c7c3b925",
            "0x0000000000000000000000006fec51b4a3f9c68e45822b6c8adcac3a2863f133",
            "0x000000000000000000000000a531f4e0b54b7ffbc8f925de01a57cde94ffd7d5"
          ],
          "data": "0x00000000000000000000000000000000000000000000000000000000001e8480",
          "blockHash": "0x5f9b55a82b6c80301487e0136c7b15e0ea5713012f3e7da1413491a3c32d7d9c",
          "blockNumber": "0x35dfef0",
          "transactionHash": "0x3bfbd6b3473b304ab17cb08372874bd78d45b2e1f41b4ac5f17f6b7fcc8b485e",
          "transactionIndex": "0x57",
          "logIndex": "0x1ed",
          "removed": false
        },
        {
          "address": "0x0000000000000000000000000000000000001010",
          "topics": [
            "0x4dfe1bbbcf077ddc3e01291eea2d5c70c2b422b415d95645b9adcfd678cb1d63",
            "0x0000000000000000000000000000000000000000000000000000000000001010",
            "0x0000000000000000000000006fec51b4a3f9c68e45822b6c8adcac3a2863f133",
            "0x000000000000000000000000eedba2484aaf940f37cd3cd21a5d7c4a7dafbfc0"
          ],
          "data": "0x00000000000000000000000000000000000000000000000000058347f764100000000000000000000000000000000000000000000000000065a25a607f9c2bba000000000000000000000000000000000000000000012432921a94e6d9f2a1db000000000000000000000000000000000000000000000000659cd71888381bba0000000000000000000000000000000000000000000124329220182ed156b1db",
          "blockHash": "0x5f9b55a82b6c80301487e0136c7b15e0ea5713012f3e7da1413491a3c32d7d9c",
          "blockNumber": "0x35dfef0",
          "transactionHash": "0x3bfbd6b3473b304ab17cb08372874bd78d45b2e1f41b4ac5f17f6b7fcc8b485e",
          "transactionIndex": "0x57",
          "logIndex": "0x1ee",
          "removed": false
        }
      ],
      "status": "0x1",
      "logsBloom": "0x00000000000000000000000000000000000000000000000000000000000004000080000000000000000000000000000100008000020000000000000000200000000000000000000000000000000000800000000000000000000100000000000000000000000000000000000000000000000000000100000080000000000000000000004000080000000000000000000000000020000000000000000000000000220000020000000000000000000000000000000000000000000020000000004000000000000000000001000000000000400000000000000000100000000000000010000000000000000000000000000000000000000000000000000000100000",
      "type": "0x2",
      "effectiveGasPrice": "0x10e3c4276b"
    },
    {
      "transactionHash": "0x39d6ea2d60478deff1cf91b15f085f9c3975b30b0dad8ff3c9697587e6e566bf",
      "transactionIndex": "0x4a",
      "blockHash": "0x4ee3a6601b8170aed523cae5fe4969db812e61b56ecbdfb65846ef9dd373c2c0",
      "blockNumber": "0x35dfef4",
      "from": "0x6FEC51b4a3F9c68E45822B6C8aDcac3A2863f133",
      "to": "0xA531F4E0b54B7FFBc8F925dE01A57cDE94Ffd7D5",
      "cumulativeGasUsed": "0xa68a1a",
      "gasUsed": "0x159d9",
      "contractAddress": null,
      "logs": [
        {
          "address": "0xA531F4E0b54B7FFBc8F925dE01A57cDE94Ffd7D5",
          "topics": [
            "0xdeb0668e856be4237a3ff00cd22720a00e0a8b0772c2deece2a306ad60772f30"
          ],
          "data": "0x0000000000000000000000000000000000000000000000000000000005f54faf",
          "blockHash": "0x4ee3a6601b8170aed523cae5fe4969db812e61b56ecbdfb65846ef9dd373c2c0",
          "blockNumber": "0x35dfef4",
          "transactionHash": "0x39d6ea2d60478deff1cf91b15f085f9c3975b30b0dad8ff3c9697587e6e566bf",
          "transactionIndex": "0x4a",
          "logIndex": "0x13c",
          "removed": false
        },
        {
          "address": "0xc2132D05D31c914a87C6611C10748AEb04B58e8F",
          "topics": [
            "0xddf252ad1be2c89b69c2b068fc378daa952ba7f163c4a11628f55a4df523b3ef",
            "0x0000000000000000000000006fec51b4a3f9c68e45822b6c8adcac3a2863f133",
            "0x000000000000000000000000a531f4e0b54b7ffbc8f925de01a57cde94ffd7d5"
          ],
          "data": "0x00000000000000000000000000000000000000000000000000000000001e8480",
          "blockHash": "0x4ee3a6601b8170aed523cae5fe4969db812e61b56ecbdfb65846ef9dd373c2c0",
          "blockNumber": "0x35dfef4",
          "transactionHash": "0x39d6ea2d60478deff1cf91b15f085f9c3975b30b0dad8ff3c9697587e6e566bf",
          "transactionIndex": "0x4a",
          "logIndex": "0x13d",
          "removed": false
        },
        {
          "address": "0xc2132D05D31c914a87C6611C10748AEb04B58e8F",
          "topics": [
            "0x8c5be1e5ebec7d5bd14f71427d1e84f3dd0314c0f7b2291e5b200ac8c7c3b925",
            "0x0000000000000000000000006fec51b4a3f9c68e45822b6c8adcac3a2863f133",
            "0x000000000000000000000000a531f4e0b54b7ffbc8f925de01a57cde94ffd7d5"
          ],
          "data": "0x0000000000000000000000000000000000000000000000000000000000000000",
          "blockHash": "0x4ee3a6601b8170aed523cae5fe4969db812e61b56ecbdfb65846ef9dd373c2c0",
          "blockNumber": "0x35dfef4",
          "transactionHash": "0x39d6ea2d60478deff1cf91b15f085f9c3975b30b0dad8ff3c9697587e6e566bf",
          "transactionIndex": "0x4a",
          "logIndex": "0x13e",
          "removed": false
        },
        {
          "address": "0xf93A0FCdE9304CABefb004540838FF5234789429",
          "topics": [
            "0xddf252ad1be2c89b69c2b068fc378daa952ba7f163c4a11628f55a4df523b3ef",
            "0x000000000000000000000000a531f4e0b54b7ffbc8f925de01a57cde94ffd7d5",
            "0x0000000000000000000000006fec51b4a3f9c68e45822b6c8adcac3a2863f133"
          ],
          "data": "0x0000000000000000000000000000000000000000000000000000000000000000",
          "blockHash": "0x4ee3a6601b8170aed523cae5fe4969db812e61b56ecbdfb65846ef9dd373c2c0",
          "blockNumber": "0x35dfef4",
          "transactionHash": "0x39d6ea2d60478deff1cf91b15f085f9c3975b30b0dad8ff3c9697587e6e566bf",
          "transactionIndex": "0x4a",
          "logIndex": "0x13f",
          "removed": false
        },
        {
          "address": "0xA531F4E0b54B7FFBc8F925dE01A57cDE94Ffd7D5",
          "topics": [
            "0x8fafebcaf9d154343dad25669bfa277f4fbacd7ac6b0c4fed522580e040a0f33",
            "0x0000000000000000000000006fec51b4a3f9c68e45822b6c8adcac3a2863f133"
          ],
          "data": "0x00000000000000000000000000000000000000000000000000000000001e84800000000000000000000000000000000000000000000000000000000000000000",
          "blockHash": "0x4ee3a6601b8170aed523cae5fe4969db812e61b56ecbdfb65846ef9dd373c2c0",
          "blockNumber": "0x35dfef4",
          "transactionHash": "0x39d6ea2d60478deff1cf91b15f085f9c3975b30b0dad8ff3c9697587e6e566bf",
          "transactionIndex": "0x4a",
          "logIndex": "0x140",
          "removed": false
        },
        {
          "address": "0x0000000000000000000000000000000000001010",
          "topics": [
            "0x4dfe1bbbcf077ddc3e01291eea2d5c70c2b422b415d95645b9adcfd678cb1d63",
            "0x0000000000000000000000000000000000000000000000000000000000001010",
            "0x0000000000000000000000006fec51b4a3f9c68e45822b6c8adcac3a2863f133",
            "0x000000000000000000000000eedba2484aaf940f37cd3cd21a5d7c4a7dafbfc0"
          ],
          "data": "0x00000000000000000000000000000000000000000000000000096fb7cd08cc00000000000000000000000000000000000000000000000000659505dd0b4fe4b6000000000000000000000000000000000000000000012432c6b89aa805a08442000000000000000000000000000000000000000000000000658b96253e4718b6000000000000000000000000000000000000000000012432c6c20a5fd2a95042",
          "blockHash": "0x4ee3a6601b8170aed523cae5fe4969db812e61b56ecbdfb65846ef9dd373c2c0",
          "blockNumber": "0x35dfef4",
          "transactionHash": "0x39d6ea2d60478deff1cf91b15f085f9c3975b30b0dad8ff3c9697587e6e566bf",
          "transactionIndex": "0x4a",
          "logIndex": "0x141",
          "removed": false
        }
      ],
      "status": "0x1",
      "logsBloom": "0x00000000000000000000000001000020000000000000000000040000000004000080000000000000000000000000000100008022020000000000000000200000000000000000000000000008000000800000001000100000000100000000040000000000000000000000000000000000000000000120000080000010000000000000004000080000000000000000000000000020000000000000000000000000220000020000000000000000000000040000000000000000000020000000004000001002000000000001000000000000400000000000000000100000000000000010000000000000000000000000000000000000000000100000000000100000",
      "type": "0x2",
      "effectiveGasPrice": "0x10e30300fd"
    }
  ],
  "libraries": [],
  "pending": [],
  "returns": {},
  "timestamp": 1714648116,
  "chain": 137,
  "commit": "ce1cf17"
}