{
  "transactions": [
    {
      "hash": "0xaebe1b4ea6c9225762972c3b3458bbb9b5fdd9b56d160c83076d91f526b5437c",
      "transactionType": "CALL",
      "contractName": null,
      "contractAddress": "0xc2132D05D31c914a87C6611C10748AEb04B58e8F",
      "function": "approve(address,uint256)",
      "arguments": [
        "0xA531F4E0b54B7FFBc8F925dE01A57cDE94Ffd7D5",
        "2000000"
      ],
      "transaction": {
        "type": "0x02",
        "from": "0x6fec51b4a3f9c68e45822b6c8adcac3a2863f133",
        "to": "0xc2132d05d31c914a87c6611c10748aeb04b58e8f",
        "gas": "0x11712",
        "value": "0x0",
        "data": "0x095ea7b3000000000000000000000000a531f4e0b54b7ffbc8f925de01a57cde94ffd7d500000000000000000000000000000000000000000000000000000000001e8480",
        "nonce": "0x14e",
        "accessList": []
      },
      "additionalContracts": [],
      "isFixedGasLimit": false
    },
    {
      "hash": "0xd657a13fc3d4f59076adac82fc557156f8f6f587cd5cfb7c7d793a37060fd957",
      "transactionType": "CALL",
      "contractName": null,
      "contractAddress": "0xA531F4E0b54B7FFBc8F925dE01A57cDE94Ffd7D5",
      "function": "buyTokens(uint256)",
      "arguments": [
        "2000000"
      ],
      "transaction": {
        "type": "0x02",
        "from": "0x6fec51b4a3f9c68e45822b6c8adcac3a2863f133",
        "to": "0xa531f4e0b54b7ffbc8f925de01a57cde94ffd7d5",
        "gas": "0x239f6",
        "value": "0x0",
        "data": "0x3610724e00000000000000000000000000000000000000000000000000000000001e8480",
        "nonce": "0x14f",
        "accessList": []
      },
      "additionalContracts": [],
      "isFixedGasLimit": false
    }
  ],
  "receipts": [
    {
      "transactionHash": "0xaebe1b4ea6c9225762972c3b3458bbb9b5fdd9b56d160c83076d91f526b5437c",
      "transactionIndex": "0x61",
      "blockHash": "0x02549d73dc7d6c0c25a5f6ce4a98c7777f3504d2942056896487382359cce405",
      "blockNumber": "0x35dfe91",
      "from": "0x6FEC51b4a3F9c68E45822B6C8aDcac3A2863f133",
      "to": "0xc2132D05D31c914a87C6611C10748AEb04B58e8F",
      "cumulativeGasUsed": "0x1215cb3",
      "gasUsed": "0xca0c",
      "contractAddress": null,
      "logs": [
        {
          "address": "0xc2132D05D31c914a87C6611C10748AEb04B58e8F",
          "topics": [
            "0x8c5be1e5ebec7d5bd14f71427d1e84f3dd0314c0f7b2291e5b200ac8c7c3b925",
            "0x0000000000000000000000006fec51b4a3f9c68e45822b6c8adcac3a2863f133",
            "0x000000000000000000000000a531f4e0b54b7ffbc8f925de01a57cde94ffd7d5"
          ],
          "data": "0x00000000000000000000000000000000000000000000000000000000001e8480",
          "blockHash": "0x02549d73dc7d6c0c25a5f6ce4a98c7777f3504d2942056896487382359cce405",
          "blockNumber": "0x35dfe91",
          "transactionHash": "0xaebe1b4ea6c9225762972c3b3458bbb9b5fdd9b56d160c83076d91f526b5437c",
          "transactionIndex": "0x61",
          "logIndex": "0x28a",
          "removed": false
        },
        {
          "address": "0x0000000000000000000000000000000000001010",
          "topics": [
            "0x4dfe1bbbcf077ddc3e01291eea2d5c70c2b422b415d95645b9adcfd678cb1d63",
            "0x0000000000000000000000000000000000000000000000000000000000001010",
            "0x0000000000000000000000006fec51b4a3f9c68e45822b6c8adcac3a2863f133",
            "0x000000000000000000000000b95d435df3f8b2a8d8b9c2b7c8766c9ae6ed8cc9"
          ],
          "data": "0x0000000000000000000000000000000000000000000000000007a5dcbd400e7c00000000000000000000000000000000000000000000000065d30c717b3c1e1200000000000000000000000000000000000000000000000e41ce19043193250900000000000000000000000000000000000000000000000065cb6694bdfc0f9600000000000000000000000000000000000000000000000e41d5bee0eed33385",
          "blockHash": "0x02549d73dc7d6c0c25a5f6ce4a98c7777f3504d2942056896487382359cce405",
          "blockNumber": "0x35dfe91",
          "transactionHash": "0xaebe1b4ea6c9225762972c3b3458bbb9b5fdd9b56d160c83076d91f526b5437c",
          "transactionIndex": "0x61",
          "logIndex": "0x28b",
          "removed": false
        }
      ],
      "status": "0x1",
      "logsBloom": "0x00000000000000000000000000000000000000000000000000000000000004000080000000000000000000000000000100008000020000000000000000200000800000000000000000000000000000800000000000000000000100000000000100000000000000000000000000000000000000000000000080000000000000000000000000080000000000000000000000000020000000000000000000000000220000020000000000000000000000000000000000000000000000000000004000000000000000040001000000000000400000000000000000100000000000000010000000000000000000000000000000000000000000000000000000100000",
      "type": "0x2",
      "effectiveGasPrice": "0x1447bb5dd8"
    },
    {
      "transactionHash": "0xd657a13fc3d4f59076adac82fc557156f8f6f587cd5cfb7c7d793a37060fd957",
      "transactionIndex": "0x62",
      "blockHash": "0x02549d73dc7d6c0c25a5f6ce4a98c7777f3504d2942056896487382359cce405",
      "blockNumber": "0x35dfe91",
      "from": "0x6FEC51b4a3F9c68E45822B6C8aDcac3A2863f133",
      "to": "0xA531F4E0b54B7FFBc8F925dE01A57cDE94Ffd7D5",
      "cumulativeGasUsed": "0x122f958",
      "gasUsed": "0x19ca5",
      "contractAddress": null,
      "logs": [
        {
          "address": "0xA531F4E0b54B7FFBc8F925dE01A57cDE94Ffd7D5",
          "topics": [
            "0xdeb0668e856be4237a3ff00cd22720a00e0a8b0772c2deece2a306ad60772f30"
          ],
          "data": "0x0000000000000000000000000000000000000000000000000000000005f567e8",
          "blockHash": "0x02549d73dc7d6c0c25a5f6ce4a98c7777f3504d2942056896487382359cce405",
          "blockNumber": "0x35dfe91",
          "transactionHash": "0xd657a13fc3d4f59076adac82fc557156f8f6f587cd5cfb7c7d793a37060fd957",
          "transactionIndex": "0x62",
          "logIndex": "0x28c",
          "removed": false
        },
        {
          "address": "0xc2132D05D31c914a87C6611C10748AEb04B58e8F",
          "topics": [
            "0xddf252ad1be2c89b69c2b068fc378daa952ba7f163c4a11628f55a4df523b3ef",
            "0x0000000000000000000000006fec51b4a3f9c68e45822b6c8adcac3a2863f133",
            "0x000000000000000000000000a531f4e0b54b7ffbc8f925de01a57cde94ffd7d5"
          ],
          "data": "0x00000000000000000000000000000000000000000000000000000000001e8480",
          "blockHash": "0x02549d73dc7d6c0c25a5f6ce4a98c7777f3504d2942056896487382359cce405",
          "blockNumber": "0x35dfe91",
          "transactionHash": "0xd657a13fc3d4f59076adac82fc557156f8f6f587cd5cfb7c7d793a37060fd957",
          "transactionIndex": "0x62",
          "logIndex": "0x28d",
          "removed": false
        },
        {
          "address": "0xc2132D05D31c914a87C6611C10748AEb04B58e8F",
          "topics": [
            "0x8c5be1e5ebec7d5bd14f71427d1e84f3dd0314c0f7b2291e5b200ac8c7c3b925",
            "0x0000000000000000000000006fec51b4a3f9c68e45822b6c8adcac3a2863f133",
            "0x000000000000000000000000a531f4e0b54b7ffbc8f925de01a57cde94ffd7d5"
          ],
          "data": "0x0000000000000000000000000000000000000000000000000000000000000000",
          "blockHash": "0x02549d73dc7d6c0c25a5f6ce4a98c7777f3504d2942056896487382359cce405",
          "blockNumber": "0x35dfe91",
          "transactionHash": "0xd657a13fc3d4f59076adac82fc557156f8f6f587cd5cfb7c7d793a37060fd957",
          "transactionIndex": "0x62",
          "logIndex": "0x28e",
          "removed": false
        },
        {
          "address": "0xf93A0FCdE9304CABefb004540838FF5234789429",
          "topics": [
            "0xddf252ad1be2c89b69c2b068fc378daa952ba7f163c4a11628f55a4df523b3ef",
            "0x000000000000000000000000a531f4e0b54b7ffbc8f925de01a57cde94ffd7d5",
            "0x0000000000000000000000006fec51b4a3f9c68e45822b6c8adcac3a2863f133"
          ],
          "data": "0x0000000000000000000000000000000000000000000000000000000000000000",
          "blockHash": "0x02549d73dc7d6c0c25a5f6ce4a98c7777f3504d2942056896487382359cce405",
          "blockNumber": "0x35dfe91",
          "transactionHash": "0xd657a13fc3d4f59076adac82fc557156f8f6f587cd5cfb7c7d793a37060fd957",
          "transactionIndex": "0x62",
          "logIndex": "0x28f",
          "removed": false
        },
        {
          "address": "0xA531F4E0b54B7FFBc8F925dE01A57cDE94Ffd7D5",
          "topics": [
            "0x8fafebcaf9d154343dad25669bfa277f4fbacd7ac6b0c4fed522580e040a0f33",
            "0x0000000000000000000000006fec51b4a3f9c68e45822b6c8adcac3a2863f133"
          ],
          "data": "0x00000000000000000000000000000000000000000000000000000000001e84800000000000000000000000000000000000000000000000000000000000000000",
          "blockHash": "0x02549d73dc7d6c0c25a5f6ce4a98c7777f3504d2942056896487382359cce405",
          "blockNumber": "0x35dfe91",
          "transactionHash": "0xd657a13fc3d4f59076adac82fc557156f8f6f587cd5cfb7c7d793a37060fd957",
          "transactionIndex": "0x62",
          "logIndex": "0x290",
          "removed": false
        },
        {
          "address": "0x0000000000000000000000000000000000001010",
          "topics": [
            "0x4dfe1bbbcf077ddc3e01291eea2d5c70c2b422b415d95645b9adcfd678cb1d63",
            "0x0000000000000000000000000000000000000000000000000000000000001010",
            "0x0000000000000000000000006fec51b4a3f9c68e45822b6c8adcac3a2863f133",
            "0x000000000000000000000000b95d435df3f8b2a8d8b9c2b7c8766c9ae6ed8cc9"
          ],
          "data": "0x000000000000000000000000000000000000000000000000000f9e95313dcba900000000000000000000000000000000000000000000000065c30ae4466747f200000000000000000000000000000000000000000000000e41d5bee0eed3338500000000000000000000000000000000000000000000000065b36c4f15297c4900000000000000000000000000000000000000000000000e41e55d762010ff2e",
          "blockHash": "0x02549d73dc7d6c0c25a5f6ce4a98c7777f3504d2942056896487382359cce405",
          "blockNumber": "0x35dfe91",
          "transactionHash": "0xd657a13fc3d4f59076adac82fc557156f8f6f587cd5cfb7c7d793a37060fd957",
          "transactionIndex": "0x62",
          "logIndex": "0x291",
          "removed": false
        }
      ],
      "status": "0x1",
      "logsBloom": "0x00000000000000000000000001000020000000000000000000040000000004000080000000000000000000000000000100008022020000000000000000200000800000000000000000000008000000800000001000100000000100000000040100000000000000000000000000000000000000000020000080000010000000000000000000080000000000000000000000000020000000000000000000000000220000020000000000000000000000040000000000000000000000000000004000001002000000040001000000000000400000000000000000100000000000000010000000000000000000000000000000000000000000100000000000100000",
      "type": "0x2",
      "effectiveGasPrice": "0x1447bb5dd8"
    }
  ],
  "libraries": [],
  "pending": [],
  "returns": {},
  "timestamp": 1714647849,
  "chain": 137,
  "commit": "ce1cf17"
}