{
  "transactions": [
    {
      "hash": "0x8c867be9ebf4c65c9f033ec010b63742b30ed44d99992d479f9abcb1b55c40cb",
      "transactionType": "CREATE",
      "contractName": "TokenDistribution",
      "contractAddress": "0xA42429550251E289bFD696CcF147A838F3040D35",
      "function": null,
      "arguments": [
        "0x8db9B7C4e93e6e1F5cC1754D6a89e0D5ad276af9",
        "0xc2132D05D31c914a87C6611C10748AEb04B58e8F",
        "0x0A6513e40db6EB1b165753AD52E80663aeA50545",
        "0x6FEC51b4a3F9c68E45822B6C8aDcac3A2863f133"
      ],
      "transaction": {
        "type": "0x02",
        "from": "0x6fec51b4a3f9c68e45822b6c8adcac3a2863f133",
        "gas": "0xe162c",
        "value": "0x0",
        "data": "0x608060405234801561001057600080fd5b50604051610c36380380610c3683398101604081905261002f91610230565b806001600160a01b03811661005f57604051631e4fbdf760e01b8152600060048201526024015b60405180910390fd5b610068816101c4565b506001600160a01b0384166100bf5760405162461bcd60e51b815260206004820152601c60248201527f546f6b656e20616464726573732063616e6e6f74206265207a65726f000000006044820152606401610056565b6001600160a01b0383166101155760405162461bcd60e51b815260206004820152601b60248201527f5553445420616464726573732063616e6e6f74206265207a65726f00000000006044820152606401610056565b6001600160a01b0382166101755760405162461bcd60e51b815260206004820152602160248201527f5072696365206665656420616464726573732063616e6e6f74206265207a65726044820152606f60f81b6064820152608401610056565b50600180546001600160a01b039485166001600160a01b031991821617909155600280549385169382169390931790925560038054919093169116179055670de0b6b3a7640000600455610284565b600080546001600160a01b038381166001600160a01b0319831681178455604051919092169283917f8be0079c531659141344cd1fd0a4f28419497f9722a3daafe3b4186f6b6457e09190a35050565b80516001600160a01b038116811461022b57600080fd5b919050565b6000806000806080858703121561024657600080fd5b61024f85610214565b935061025d60208601610214565b925061026b60408601610214565b915061027960608601610214565b905092959194509250565b6109a3806102936000396000f3fe608060405234801561001057600080fd5b50600436106100995760003560e01c80632f48ab7d1461009e5780633610724e146100c75780633ea521ef146100dc578063407fcc31146100ef578063715018a614610106578063741bef1a1461010e5780638da5cb5b14610121578063b8d0cf4a14610129578063dd49756e1461013c578063f2fde38b1461014f578063fc0c546a14610162575b600080fd5b6002546100b1906001600160a01b031681565b6040516100be91906107f8565b60405180910390f35b6100da6100d536600461080c565b610175565b005b6100da6100ea36600461080c565b6104a7565b6100f860045481565b6040519081526020016100be565b6100da61059b565b6003546100b1906001600160a01b031681565b6100b16105af565b6100da61013736600461080c565b6105be565b6100da61014a36600461080c565b61064b565b6100da61015d366004610825565b610738565b6001546100b1906001600160a01b031681565b600081116101d85760405162461bcd60e51b815260206004820152602560248201527f5553445420616d6f756e74206d7573742062652067726561746572207468616e604482015264207a65726f60d81b60648201526084015b60405180910390fd5b60035460408051633fabe5a360e21b815290516000926001600160a01b03169163feaf968c9160048083019260a09291908290030181865afa158015610222573d6000803e3d6000fd5b505050506040513d601f19601f820116820180604052508101906102469190610871565b505050915050600081136102915760405162461bcd60e51b8152602060048201526012602482015271496e76616c6964207072696365206461746160701b60448201526064016101cf565b6040518181527fdeb0668e856be4237a3ff00cd22720a00e0a8b0772c2deece2a306ad60772f309060200160405180910390a160006305f5e1006102d583856108c1565b6102df91906108ec565b905060006102f28264e8d4a510006108c1565b6002546040516323b872dd60e01b81529192506001600160a01b0316906323b872dd906103279033903090899060040161090e565b6020604051808303816000875af1158015610346573d6000803e3d6000fd5b505050506040513d601f19601f8201168201806040525081019061036a9190610932565b6103ad5760405162461bcd60e51b81526020600482015260146024820152731554d115081d1c985b9cd9995c8819985a5b195960621b60448201526064016101cf565b60015460405163a9059cbb60e01b81526001600160a01b039091169063a9059cbb906103df9033908590600401610954565b6020604051808303816000875af11580156103fe573d6000803e3d6000fd5b505050506040513d601f19601f820116820180604052508101906104229190610932565b6104665760405162461bcd60e51b8152602060048201526015602482015274151bdad95b881d1c985b9cd9995c8819985a5b1959605a1b60448201526064016101cf565b604080518581526020810183905233917f8fafebcaf9d154343dad25669bfa277f4fbacd7ac6b0c4fed522580e040a0f33910160405180910390a250505050565b6104af610776565b60025460405163a9059cbb60e01b81526001600160a01b039091169063a9059cbb906104e19033908590600401610954565b6020604051808303816000875af1158015610500573d6000803e3d6000fd5b505050506040513d601f19601f820116820180604052508101906105249190610932565b6105645760405162461bcd60e51b815260206004820152601160248201527015da5d1a191c985dd85b0819985a5b1959607a1b60448201526064016101cf565b6040518181527f7fca92c9929b53120be04d990950b67da0dc00465c2b07a3a9c7d7c7f4d7d26a906020015b60405180910390a150565b6105a3610776565b6105ad60006107a8565b565b6000546001600160a01b031690565b6105c6610776565b600081116106165760405162461bcd60e51b815260206004820152601f60248201527f5072696365206d7573742062652067726561746572207468616e207a65726f0060448201526064016101cf565b60048190556040518181527f6b361c807733cc94a3b7bda39c1c94dcc0511e91aa47b0f7f918068e9397689090602001610590565b610653610776565b6001546040516323b872dd60e01b81526001600160a01b03909116906323b872dd906106879033903090869060040161090e565b6020604051808303816000875af11580156106a6573d6000803e3d6000fd5b505050506040513d601f19601f820116820180604052508101906106ca9190610932565b6107085760405162461bcd60e51b815260206004820152600f60248201526e151c985b9cd9995c8819985a5b1959608a1b60448201526064016101cf565b6040518181527f77acf75e237f9aae98f997395832d522bdb695e4a9bd07704936aa889a3667d190602001610590565b610740610776565b6001600160a01b03811661076a576000604051631e4fbdf760e01b81526004016101cf91906107f8565b610773816107a8565b50565b3361077f6105af565b6001600160a01b0316146105ad573360405163118cdaa760e01b81526004016101cf91906107f8565b600080546001600160a01b038381166001600160a01b0319831681178455604051919092169283917f8be0079c531659141344cd1fd0a4f28419497f9722a3daafe3b4186f6b6457e09190a35050565b6001600160a01b0391909116815260200190565b60006020828403121561081e57600080fd5b5035919050565b60006020828403121561083757600080fd5b81356001600160a01b038116811461084e57600080fd5b9392505050565b80516001600160501b038116811461086c57600080fd5b919050565b600080600080600060a0868803121561088957600080fd5b61089286610855565b94506020860151935060408601519250606086015191506108b560808701610855565b90509295509295909350565b80820281158282048414176108e657634e487b7160e01b600052601160045260246000fd5b92915050565b60008261090957634e487b7160e01b600052601260045260246000fd5b500490565b6001600160a01b039384168152919092166020820152604081019190915260600190565b60006020828403121561094457600080fd5b8151801515811461084e57600080fd5b6001600160a01b0392909216825260208201526040019056fea2646970667358221220361fc6a75870c3b5b029458831e49caf250895ddb7914d36665b3bc202c2fdf064736f6c634300081800330000000000000000000000008db9b7c4e93e6e1f5cc1754d6a89e0d5ad276af9000000000000000000000000c2132d05d31c914a87c6611c10748aeb04b58e8f0000000000000000000000000a6513e40db6eb1b165753ad52e80663aea505450000000000000000000000006fec51b4a3f9c68e45822b6c8adcac3a2863f133",
        "nonce": "0x42",
        "accessList": []
      },
      "additionalContracts": [],
      "isFixedGasLimit": false
    },
    {
      "hash": "0x67e6947105d22c4ab47f8f46159df52036fb8be0aa438b9567f1fba816a6a409",
      "transactionType": "CALL",
      "contractName": null,
      "contractAddress": "0x8db9B7C4e93e6e1F5cC1754D6a89e0D5ad276af9",
      "function": "approve(address,uint256)",
      "arguments": [
        "0xA42429550251E289bFD696CcF147A838F3040D35",
        "100000000000000000000"
      ],
      "transaction": {
        "type": "0x02",
        "from": "0x6fec51b4a3f9c68e45822b6c8adcac3a2863f133",
        "to": "0x8db9b7c4e93e6e1f5cc1754d6a89e0d5ad276af9",
        "gas": "0x10968",
        "value": "0x0",
        "data": "0x095ea7b3000000000000000000000000a42429550251e289bfd696ccf147a838f3040d350000000000000000000000000000000000000000000000056bc75e2d63100000",
        "nonce": "0x43",
        "accessList": []
      },
      "additionalContracts": [],
      "isFixedGasLimit": false
    },
    {
      "hash": "0x584f76ba7af82eb09351318711be8b78c28a936f24893a410e2055b87550eed0",
      "transactionType": "CALL",
      "contractName": "TokenDistribution",
      "contractAddress": "0xA42429550251E289bFD696CcF147A838F3040D35",
      "function": "depositTokens(uint256)",
      "arguments": [
        "100000000000000000000"
      ],
      "transaction": {
        "type": "0x02",
        "from": "0x6fec51b4a3f9c68e45822b6c8adcac3a2863f133",
        "to": "0xa42429550251e289bfd696ccf147a838f3040d35",
        "gas": "0x15495",
        "value": "0x0",
        "data": "0xdd49756e0000000000000000000000000000000000000000000000056bc75e2d63100000",
        "nonce": "0x44",
        "accessList": []
      },
      "additionalContracts": [],
      "isFixedGasLimit": false
    },
    {
      "hash": "0x4b45c3e9e00667f2233854b5aafd7055d206297ea2c991b84473cdb03cbf0ebe",
      "transactionType": "CALL",
      "contractName": "TokenDistribution",
      "contractAddress": "0xA42429550251E289bFD696CcF147A838F3040D35",
      "function": "setTokenPriceUSD(uint256)",
      "arguments": [
        "1000000000000000000"
      ],
      "transaction": {
        "type": "0x02",
        "from": "0x6fec51b4a3f9c68e45822b6c8adcac3a2863f133",
        "to": "0xa42429550251e289bfd696ccf147a838f3040d35",
        "gas": "0x9afc",
        "value": "0x0",
        "data": "0xb8d0cf4a0000000000000000000000000000000000000000000000000de0b6b3a7640000",
        "nonce": "0x45",
        "accessList": []
      },
      "additionalContracts": [],
      "isFixedGasLimit": false
    }
  ],
  "receipts": [
    {
      "transactionHash": "0x8c867be9ebf4c65c9f033ec010b63742b30ed44d99992d479f9abcb1b55c40cb",
      "transactionIndex": "0x0",
      "blockHash": "0x869a3b550f7560fb752726848b173deffec26cb6bf9d740b694327de7cfec35f",
      "blockNumber": "0x6c68a9",
      "from": "0x6FEC51b4a3F9c68E45822B6C8aDcac3A2863f133",
      "to": null,
      "cumulativeGasUsed": "0xad6c7",
      "gasUsed": "0xad6c7",
      "contractAddress": "0xA42429550251E289bFD696CcF147A838F3040D35",
      "logs": [
        {
          "address": "0xA42429550251E289bFD696CcF147A838F3040D35",
          "topics": [
            "0x8be0079c531659141344cd1fd0a4f28419497f9722a3daafe3b4186f6b6457e0",
            "0x0000000000000000000000000000000000000000000000000000000000000000",
            "0x0000000000000000000000006fec51b4a3f9c68e45822b6c8adcac3a2863f133"
          ],
          "data": "0x",
          "blockHash": "0x869a3b550f7560fb752726848b173deffec26cb6bf9d740b694327de7cfec35f",
          "blockNumber": "0x6c68a9",
          "transactionHash": "0x8c867be9ebf4c65c9f033ec010b63742b30ed44d99992d479f9abcb1b55c40cb",
          "transactionIndex": "0x0",
          "logIndex": "0x0",
          "removed": false
        },
        {
          "address": "0x0000000000000000000000000000000000001010",
          "topics": [
            "0x4dfe1bbbcf077ddc3e01291eea2d5c70c2b422b415d95645b9adcfd678cb1d63",
            "0x0000000000000000000000000000000000000000000000000000000000001010",
            "0x0000000000000000000000006fec51b4a3f9c68e45822b6c8adcac3a2863f133",
            "0x000000000000000000000000033aaded92ebfec6c818624f28a8e4b3c571ab6f"
          ],
          "data": "0x00000000000000000000000000000000000000000000000000079228da8d12000000000000000000000000000000000000000000000000000b65bc80679dd3e100000000000000000000000000000000000000000000000b2ed21b23430679a40000000000000000000000000000000000000000000000000b5e2a578d10c1e100000000000000000000000000000000000000000000000b2ed9ad4c1d938ba4",
          "blockHash": "0x869a3b550f7560fb752726848b173deffec26cb6bf9d740b694327de7cfec35f",
          "blockNumber": "0x6c68a9",
          "transactionHash": "0x8c867be9ebf4c65c9f033ec010b63742b30ed44d99992d479f9abcb1b55c40cb",
          "transactionIndex": "0x0",
          "logIndex": "0x1",
          "removed": false
        }
      ],
      "status": "0x1",
      "logsBloom": "0x00000000000000000000000000000000000000000000000000800000000000000000000000000000000000000000000000008000020000000000000000000000000000000000000000000000000000800001000000000000000100000000000000080000020000000000000000000800000000000000000080000000000000400000010000000000000000000000000000000020000000000000000000000000200000000000000000000000000000000000000000000000000000200000004000000000000000000201000000000000000000000000000000500000000020000000000000000000000000000000000000000000000000000000000000500000",
      "type": "0x2",
      "effectiveGasPrice": "0xb2d05e0f"
    },
    {
      "transactionHash": "0x67e6947105d22c4ab47f8f46159df52036fb8be0aa438b9567f1fba816a6a409",
      "transactionIndex": "0x0",
      "blockHash": "0x95330f3bc35827198c105dbbee869ae10df451b4f5c82ab82877053cfcbf786e",
      "blockNumber": "0x6c68aa",
      "from": "0x6FEC51b4a3F9c68E45822B6C8aDcac3A2863f133",
      "to": "0x8db9B7C4e93e6e1F5cC1754D6a89e0D5ad276af9",
      "cumulativeGasUsed": "0xb57a",
      "gasUsed": "0xb57a",
      "contractAddress": null,
      "logs": [
        {
          "address": "0x8db9B7C4e93e6e1F5cC1754D6a89e0D5ad276af9",
          "topics": [
            "0x8c5be1e5ebec7d5bd14f71427d1e84f3dd0314c0f7b2291e5b200ac8c7c3b925",
            "0x0000000000000000000000006fec51b4a3f9c68e45822b6c8adcac3a2863f133",
            "0x000000000000000000000000a42429550251e289bfd696ccf147a838f3040d35"
          ],
          "data": "0x0000000000000000000000000000000000000000000000056bc75e2d63100000",
          "blockHash": "0x95330f3bc35827198c105dbbee869ae10df451b4f5c82ab82877053cfcbf786e",
          "blockNumber": "0x6c68aa",
          "transactionHash": "0x67e6947105d22c4ab47f8f46159df52036fb8be0aa438b9567f1fba816a6a409",
          "transactionIndex": "0x0",
          "logIndex": "0x0",
          "removed": false
        },
        {
          "address": "0x0000000000000000000000000000000000001010",
          "topics": [
            "0x4dfe1bbbcf077ddc3e01291eea2d5c70c2b422b415d95645b9adcfd678cb1d63",
            "0x0000000000000000000000000000000000000000000000000000000000001010",
            "0x0000000000000000000000006fec51b4a3f9c68e45822b6c8adcac3a2863f133",
            "0x000000000000000000000000033aaded92ebfec6c818624f28a8e4b3c571ab6f"
          ],
          "data": "0x00000000000000000000000000000000000000000000000000007ec289c2cc000000000000000000000000000000000000000000000000000b5e2a578c6e2c3800000000000000000000000000000000000000000000000b2ed9ad4c1d938ba40000000000000000000000000000000000000000000000000b5dab9502ab603800000000000000000000000000000000000000000000000b2eda2c0ea75657a4",
          "blockHash": "0x95330f3bc35827198c105dbbee869ae10df451b4f5c82ab82877053cfcbf786e",
          "blockNumber": "0x6c68aa",
          "transactionHash": "0x67e6947105d22c4ab47f8f46159df52036fb8be0aa438b9567f1fba816a6a409",
          "transactionIndex": "0x0",
          "logIndex": "0x1",
          "removed": false
        }
      ],
      "status": "0x1",
      "logsBloom": "0x00000000000000000000000000000000000000000000000000000000000000000004000000000000000000000000000000008000020000000000000000200000000000000000000000000000000000800000000000000000000100000000000000080000000000000000000000000000000000000000000088000000000000000020010000040000000000000000000000000020000000000000000000200000220000000000000000000000000000000000000000000000000000000000005000000000000000000001000000000000000000000000000000500000000000000010000000000000000000000000000000000000000000000000000000100000",
      "type": "0x2",
      "effectiveGasPrice": "0xb2d05e0f"
    },
    {
      "transactionHash": "0x584f76ba7af82eb09351318711be8b78c28a936f24893a410e2055b87550eed0",
      "transactionIndex": "0x1",
      "blockHash": "0x95330f3bc35827198c105dbbee869ae10df451b4f5c82ab82877053cfcbf786e",
      "blockNumber": "0x6c68aa",
      "from": "0x6FEC51b4a3F9c68E45822B6C8aDcac3A2863f133",
      "to": "0xA42429550251E289bFD696CcF147A838F3040D35",
      "cumulativeGasUsed": "0x1ac0e",
      "gasUsed": "0xf694",
      "contractAddress": null,
      "logs": [
        {
          "address": "0x8db9B7C4e93e6e1F5cC1754D6a89e0D5ad276af9",
          "topics": [
            "0xddf252ad1be2c89b69c2b068fc378daa952ba7f163c4a11628f55a4df523b3ef",
            "0x0000000000000000000000006fec51b4a3f9c68e45822b6c8adcac3a2863f133",
            "0x000000000000000000000000a42429550251e289bfd696ccf147a838f3040d35"
          ],
          "data": "0x0000000000000000000000000000000000000000000000056bc75e2d63100000",
          "blockHash": "0x95330f3bc35827198c105dbbee869ae10df451b4f5c82ab82877053cfcbf786e",
          "blockNumber": "0x6c68aa",
          "transactionHash": "0x584f76ba7af82eb09351318711be8b78c28a936f24893a410e2055b87550eed0",
          "transactionIndex": "0x1",
          "logIndex": "0x2",
          "removed": false
        },
        {
          "address": "0xA42429550251E289bFD696CcF147A838F3040D35",
          "topics": [
            "0x77acf75e237f9aae98f997395832d522bdb695e4a9bd07704936aa889a3667d1"
          ],
          "data": "0x0000000000000000000000000000000000000000000000056bc75e2d63100000",
          "blockHash": "0x95330f3bc35827198c105dbbee869ae10df451b4f5c82ab82877053cfcbf786e",
          "blockNumber": "0x6c68aa",
          "transactionHash": "0x584f76ba7af82eb09351318711be8b78c28a936f24893a410e2055b87550eed0",
          "transactionIndex": "0x1",
          "logIndex": "0x3",
          "removed": false
        },
        {
          "address": "0x0000000000000000000000000000000000001010",
          "topics": [
            "0x4dfe1bbbcf077ddc3e01291eea2d5c70c2b422b415d95645b9adcfd678cb1d63",
            "0x0000000000000000000000000000000000000000000000000000000000001010",
            "0x0000000000000000000000006fec51b4a3f9c68e45822b6c8adcac3a2863f133",
            "0x000000000000000000000000033aaded92ebfec6c818624f28a8e4b3c571ab6f"
          ],
          "data": "0x0000000000000000000000000000000000000000000000000000ac3b9aca58000000000000000000000000000000000000000000000000000b5dab9502a0be1200000000000000000000000000000000000000000000000b2eda2c0ea75657a40000000000000000000000000000000000000000000000000b5cff5967d6661200000000000000000000000000000000000000000000000b2edad84a4220afa4",
          "blockHash": "0x95330f3bc35827198c105dbbee869ae10df451b4f5c82ab82877053cfcbf786e",
          "blockNumber": "0x6c68aa",
          "transactionHash": "0x584f76ba7af82eb09351318711be8b78c28a936f24893a410e2055b87550eed0",
          "transactionIndex": "0x1",
          "logIndex": "0x4",
          "removed": false
        }
      ],
      "status": "0x1",
      "logsBloom": "0x00000000000020000000000000000000000000000000000000000000000000000004000000080000040000000000000000008000020000000000000000000000000000000000000000000008000000800000000000000000000100000000000000080000000000000000000000000000000000000000000088000010000000000020010000040000000000000000000000000020000000000000000000200000200000000000000000000000000000000000000000000000000000200000005000000002000000000201000000000000000000000000000000500000000000000000000000000000000000000000000000000000000000000000000000500000",
      "type": "0x2",
      "effectiveGasPrice": "0xb2d05e0f"
    },
    {
      "transactionHash": "0x4b45c3e9e00667f2233854b5aafd7055d206297ea2c991b84473cdb03cbf0ebe",
      "transactionIndex": "0x2",
      "blockHash": "0x95330f3bc35827198c105dbbee869ae10df451b4f5c82ab82877053cfcbf786e",
      "blockNumber": "0x6c68aa",
      "from": "0x6FEC51b4a3F9c68E45822B6C8aDcac3A2863f133",
      "to": "0xA42429550251E289bFD696CcF147A838F3040D35",
      "cumulativeGasUsed": "0x21607",
      "gasUsed": "0x69f9",
      "contractAddress": null,
      "logs": [
        {
          "address": "0xA42429550251E289bFD696CcF147A838F3040D35",
          "topics": [
            "0x6b361c807733cc94a3b7bda39c1c94dcc0511e91aa47b0f7f918068e93976890"
          ],
          "data": "0x0000000000000000000000000000000000000000000000000de0b6b3a7640000",
          "blockHash": "0x95330f3bc35827198c105dbbee869ae10df451b4f5c82ab82877053cfcbf786e",
          "blockNumber": "0x6c68aa",
          "transactionHash": "0x4b45c3e9e00667f2233854b5aafd7055d206297ea2c991b84473cdb03cbf0ebe",
          "transactionIndex": "0x2",
          "logIndex": "0x5",
          "removed": false
        },
        {
          "address": "0x0000000000000000000000000000000000001010",
          "topics": [
            "0x4dfe1bbbcf077ddc3e01291eea2d5c70c2b422b415d95645b9adcfd678cb1d63",
            "0x0000000000000000000000000000000000000000000000000000000000001010",
            "0x0000000000000000000000006fec51b4a3f9c68e45822b6c8adcac3a2863f133",
            "0x000000000000000000000000033aaded92ebfec6c818624f28a8e4b3c571ab6f"
          ],
          "data": "0x00000000000000000000000000000000000000000000000000004a0563396e000000000000000000000000000000000000000000000000000b5cff5967c7f36600000000000000000000000000000000000000000000000b2edad84a4220afa40000000000000000000000000000000000000000000000000b5cb554048e856600000000000000000000000000000000000000000000000b2edb224fa55a1da4",
          "blockHash": "0x95330f3bc35827198c105dbbee869ae10df451b4f5c82ab82877053cfcbf786e",
          "blockNumber": "0x6c68aa",
          "transactionHash": "0x4b45c3e9e00667f2233854b5aafd7055d206297ea2c991b84473cdb03cbf0ebe",
          "transactionIndex": "0x2",
          "logIndex": "0x6",
          "removed": false
        }
      ],
      "status": "0x1",
      "logsBloom": "0x00000000000000000000000000000000000000000000000000000000000000010000000000000000000000000000000000008000020000000000000000000000000000000000000000000000000000800000000000000000000100000000000000080000000000000000000000000000000000000000000080000000000000000000010000000000000000000000000000000020000000000000000000000000200000000000000000000100000000000000000000000000200000200000004000000000000000000201000000000000000000000000000000500000000000000000000000000000000000000000000000000000000000000000000000500000",
      "type": "0x2",
      "effectiveGasPrice": "0xb2d05e0f"
    }
  ],
  "libraries": [],
  "pending": [],
  "returns": {},
  "timestamp": 1715840769,
  "chain": 80002,
  "commit": "a29c26f"
}