{
  "transactions": [
    {
      "hash": "0x55f093f00aad9ceae376fb84034ce026cf5f2b610adadc29a317aa84d161b0bd",
      "transactionType": "CREATE",
      "contractName": "TokenDistribution",
      "contractAddress": "0xA531F4E0b54B7FFBc8F925dE01A57cDE94Ffd7D5",
      "function": null,
      "arguments": [
        "0xf93A0FCdE9304CABefb004540838FF5234789429",
        "0xc2132D05D31c914a87C6611C10748AEb04B58e8F",
        "0x0A6513e40db6EB1b165753AD52E80663aeA50545",
        "0x6FEC51b4a3F9c68E45822B6C8aDcac3A2863f133"
      ],
      "transaction": {
        "type": "0x02",
        "from": "0x6fec51b4a3f9c68e45822b6c8adcac3a2863f133",
        "gas": "0xdd7c6",
        "value": "0x0",
        "data": "0x608060405234801561001057600080fd5b50604051610bfd380380610bfd83398101604081905261002f91610230565b806001600160a01b03811661005f57604051631e4fbdf760e01b8152600060048201526024015b60405180910390fd5b610068816101c4565b506001600160a01b0384166100bf5760405162461bcd60e51b815260206004820152601c60248201527f546f6b656e20616464726573732063616e6e6f74206265207a65726f000000006044820152606401610056565b6001600160a01b0383166101155760405162461bcd60e51b815260206004820152601b60248201527f5553445420616464726573732063616e6e6f74206265207a65726f00000000006044820152606401610056565b6001600160a01b0382166101755760405162461bcd60e51b815260206004820152602160248201527f5072696365206665656420616464726573732063616e6e6f74206265207a65726044820152606f60f81b6064820152608401610056565b50600180546001600160a01b039485166001600160a01b031991821617909155600280549385169382169390931790925560038054919093169116179055670de0b6b3a7640000600455610284565b600080546001600160a01b038381166001600160a01b0319831681178455604051919092169283917f8be0079c531659141344cd1fd0a4f28419497f9722a3daafe3b4186f6b6457e09190a35050565b80516001600160a01b038116811461022b57600080fd5b919050565b6000806000806080858703121561024657600080fd5b61024f85610214565b935061025d60208601610214565b925061026b60408601610214565b915061027960608601610214565b905092959194509250565b61096a806102936000396000f3fe608060405234801561001057600080fd5b50600436106100a95760003560e01c8063741bef1a11610071578063741bef1a146101255780638da5cb5b14610138578063b8d0cf4a14610149578063dd49756e1461015c578063f2fde38b1461016f578063fc0c546a1461018257600080fd5b80632f48ab7d146100ae5780633610724e146100de5780633ea521ef146100f3578063407fcc3114610106578063715018a61461011d575b600080fd5b6002546100c1906001600160a01b031681565b6040516001600160a01b0390911681526020015b60405180910390f35b6100f16100ec36600461080d565b610195565b005b6100f161010136600461080d565b6104cc565b61010f60045481565b6040519081526020016100d5565b6100f16105c0565b6003546100c1906001600160a01b031681565b6000546001600160a01b03166100c1565b6100f161015736600461080d565b6105d4565b6100f161016a36600461080d565b610661565b6100f161017d366004610826565b610752565b6001546100c1906001600160a01b031681565b600081116101f85760405162461bcd60e51b815260206004820152602560248201527f5553445420616d6f756e74206d7573742062652067726561746572207468616e604482015264207a65726f60d81b60648201526084015b60405180910390fd5b60035460408051633fabe5a360e21b815290516000926001600160a01b03169163feaf968c9160048083019260a09291908290030181865afa158015610242573d6000803e3d6000fd5b505050506040513d601f19601f820116820180604052508101906102669190610875565b505050915050600081136102b15760405162461bcd60e51b8152602060048201526012602482015271496e76616c6964207072696365206461746160701b60448201526064016101ef565b6040518181527fdeb0668e856be4237a3ff00cd22720a00e0a8b0772c2deece2a306ad60772f309060200160405180910390a16000655af3107a40006102f783856108c5565b61030191906108f0565b905060006004548261031391906108f0565b6002546040516323b872dd60e01b8152336004820152306024820152604481018790529192506001600160a01b0316906323b872dd906064016020604051808303816000875af115801561036b573d6000803e3d6000fd5b505050506040513d601f19601f8201168201806040525081019061038f9190610912565b6103d25760405162461bcd60e51b81526020600482015260146024820152731554d115081d1c985b9cd9995c8819985a5b195960621b60448201526064016101ef565b60015460405163a9059cbb60e01b8152336004820152602481018390526001600160a01b039091169063a9059cbb906044016020604051808303816000875af1158015610423573d6000803e3d6000fd5b505050506040513d601f19601f820116820180604052508101906104479190610912565b61048b5760405162461bcd60e51b8152602060048201526015602482015274151bdad95b881d1c985b9cd9995c8819985a5b1959605a1b60448201526064016101ef565b604080518581526020810183905233917f8fafebcaf9d154343dad25669bfa277f4fbacd7ac6b0c4fed522580e040a0f33910160405180910390a250505050565b6104d4610790565b60025460405163a9059cbb60e01b8152336004820152602481018390526001600160a01b039091169063a9059cbb906044016020604051808303816000875af1158015610525573d6000803e3d6000fd5b505050506040513d601f19601f820116820180604052508101906105499190610912565b6105895760405162461bcd60e51b815260206004820152601160248201527015da5d1a191c985dd85b0819985a5b1959607a1b60448201526064016101ef565b6040518181527f7fca92c9929b53120be04d990950b67da0dc00465c2b07a3a9c7d7c7f4d7d26a906020015b60405180910390a150565b6105c8610790565b6105d260006107bd565b565b6105dc610790565b6000811161062c5760405162461bcd60e51b815260206004820152601f60248201527f5072696365206d7573742062652067726561746572207468616e207a65726f0060448201526064016101ef565b60048190556040518181527f6b361c807733cc94a3b7bda39c1c94dcc0511e91aa47b0f7f918068e93976890906020016105b5565b610669610790565b6001546040516323b872dd60e01b8152336004820152306024820152604481018390526001600160a01b03909116906323b872dd906064016020604051808303816000875af11580156106c0573d6000803e3d6000fd5b505050506040513d601f19601f820116820180604052508101906106e49190610912565b6107225760405162461bcd60e51b815260206004820152600f60248201526e151c985b9cd9995c8819985a5b1959608a1b60448201526064016101ef565b6040518181527f77acf75e237f9aae98f997395832d522bdb695e4a9bd07704936aa889a3667d1906020016105b5565b61075a610790565b6001600160a01b03811661078457604051631e4fbdf760e01b8152600060048201526024016101ef565b61078d816107bd565b50565b6000546001600160a01b031633146105d25760405163118cdaa760e01b81523360048201526024016101ef565b600080546001600160a01b038381166001600160a01b0319831681178455604051919092169283917f8be0079c531659141344cd1fd0a4f28419497f9722a3daafe3b4186f6b6457e09190a35050565b60006020828403121561081f57600080fd5b5035919050565b60006020828403121561083857600080fd5b81356001600160a01b038116811461084f57600080fd5b9392505050565b805169ffffffffffffffffffff8116811461087057600080fd5b919050565b600080600080600060a0868803121561088d57600080fd5b61089686610856565b94506020860151935060408601519250606086015191506108b960808701610856565b90509295509295909350565b80820281158282048414176108ea57634e487b7160e01b600052601160045260246000fd5b92915050565b60008261090d57634e487b7160e01b600052601260045260246000fd5b500490565b60006020828403121561092457600080fd5b8151801515811461084f57600080fdfea264697066735822122031ef31028f86d894394cc380dce496227413b1eb3580297c80ddbc8defd4d8ab64736f6c63430008180033000000000000000000000000f93a0fcde9304cabefb004540838ff5234789429000000000000000000000000c2132d05d31c914a87c6611c10748aeb04b58e8f0000000000000000000000000a6513e40db6eb1b165753ad52e80663aea505450000000000000000000000006fec51b4a3f9c68e45822b6c8adcac3a2863f133",
        "nonce": "0x149",
        "accessList": []
      },
      "additionalContracts": [],
      "isFixedGasLimit": false
    },
    {
      "hash": "0x7d6b14d86c77ffc3f18230db51e9bf7b3ef6f9bcad6dcafbfc8b5890d7bce0fd",
      "transactionType": "CALL",
      "contractName": null,
      "contractAddress": "0xf93A0FCdE9304CABefb004540838FF5234789429",
      "function": "approve(address,uint256)",
      "arguments": [
        "0xA531F4E0b54B7FFBc8F925dE01A57cDE94Ffd7D5",
        "100000000000000000000"
      ],
      "transaction": {
        "type": "0x02",
        "from": "0x6fec51b4a3f9c68e45822b6c8adcac3a2863f133",
        "to": "0xf93a0fcde9304cabefb004540838ff5234789429",
        "gas": "0x10968",
        "value": "0x0",
        "data": "0x095ea7b3000000000000000000000000a531f4e0b54b7ffbc8f925de01a57cde94ffd7d50000000000000000000000000000000000000000000000056bc75e2d63100000",
        "nonce": "0x14a",
        "accessList": []
      },
      "additionalContracts": [],
      "isFixedGasLimit": false
    },
    {
      "hash": "0x6d72c2c845a328ae7deb4b87423bd240a3dbdcf783b998b74ea58ef8d64bf734",
      "transactionType": "CALL",
      "contractName": "TokenDistribution",
      "contractAddress": "0xA531F4E0b54B7FFBc8F925dE01A57cDE94Ffd7D5",
      "function": "depositTokens(uint256)",
      "arguments": [
        "100000000000000000000"
      ],
      "transaction": {
        "type": "0x02",
        "from": "0x6fec51b4a3f9c68e45822b6c8adcac3a2863f133",
        "to": "0xa531f4e0b54b7ffbc8f925de01a57cde94ffd7d5",
        "gas": "0x1536d",
        "value": "0x0",
        "data": "0xdd49756e0000000000000000000000000000000000000000000000056bc75e2d63100000",
        "nonce": "0x14b",
        "accessList": []
      },
      "additionalContracts": [],
      "isFixedGasLimit": false
    },
    {
      "hash": "0x89ad3cd6b2438a0c47f90fd7ce3870bf859c174c15008ae08ccb405f42ee55c6",
      "transactionType": "CALL",
      "contractName": "TokenDistribution",
      "contractAddress": "0xA531F4E0b54B7FFBc8F925dE01A57cDE94Ffd7D5",
      "function": "setTokenPriceUSD(uint256)",
      "arguments": [
        "1000000000000000000"
      ],
      "transaction": {
        "type": "0x02",
        "from": "0x6fec51b4a3f9c68e45822b6c8adcac3a2863f133",
        "to": "0xa531f4e0b54b7ffbc8f925de01a57cde94ffd7d5",
        "gas": "0x91a7",
        "value": "0x0",
        "data": "0xb8d0cf4a0000000000000000000000000000000000000000000000000de0b6b3a7640000",
        "nonce": "0x14c",
        "accessList": []
      },
      "additionalContracts": [],
      "isFixedGasLimit": false
    }
  ],
  "receipts": [
    {
      "transactionHash": "0x89ad3cd6b2438a0c47f90fd7ce3870bf859c174c15008ae08ccb405f42ee55c6",
      "transactionIndex": "0x63",
      "blockHash": "0x410c7cb7583cca2915932dfe70956a71620947ecae331acda8c279168d99799f",
      "blockNumber": "0x35dfe28",
      "from": "0x6FEC51b4a3F9c68E45822B6C8aDcac3A2863f133",
      "to": "0xA531F4E0b54B7FFBc8F925dE01A57cDE94Ffd7D5",
      "cumulativeGasUsed": "0xa65c10",
      "gasUsed": "0x6974",
      "contractAddress": null,
      "logs": [
        {
          "address": "0xA531F4E0b54B7FFBc8F925dE01A57cDE94Ffd7D5",
          "topics": [
            "0x6b361c807733cc94a3b7bda39c1c94dcc0511e91aa47b0f7f918068e93976890"
          ],
          "data": "0x0000000000000000000000000000000000000000000000000de0b6b3a7640000",
          "blockHash": "0x410c7cb7583cca2915932dfe70956a71620947ecae331acda8c279168d99799f",
          "blockNumber": "0x35dfe28",
          "transactionHash": "0x89ad3cd6b2438a0c47f90fd7ce3870bf859c174c15008ae08ccb405f42ee55c6",
          "transactionIndex": "0x63",
          "logIndex": "0x158",
          "removed": false
        },
        {
          "address": "0x0000000000000000000000000000000000001010",
          "topics": [
            "0x4dfe1bbbcf077ddc3e01291eea2d5c70c2b422b415d95645b9adcfd678cb1d63",
            "0x0000000000000000000000000000000000000000000000000000000000001010",
            "0x0000000000000000000000006fec51b4a3f9c68e45822b6c8adcac3a2863f133",
            "0x000000000000000000000000a8b52f02108aa5f4b675bdcc973760022d7c6020"
          ],
          "data": "0x0000000000000000000000000000000000000000000000000002e094e1b5f00000000000000000000000000000000000000000000000000065dca406e17886ad00000000000000000000000000000000000000000000037ade048db682546d0600000000000000000000000000000000000000000000000065d9c371ffc296ad00000000000000000000000000000000000000000000037ade076e4b640a5d06",
          "blockHash": "0x410c7cb7583cca2915932dfe70956a71620947ecae331acda8c279168d99799f",
          "blockNumber": "0x35dfe28",
          "transactionHash": "0x89ad3cd6b2438a0c47f90fd7ce3870bf859c174c15008ae08ccb405f42ee55c6",
          "transactionIndex": "0x63",
          "logIndex": "0x159",
          "removed": false
        }
      ],
      "status": "0x1",
      "logsBloom": "0x00000000000000000000000000000000000000000000000000000000000000010000000000000000000000000002000000008002020000000000000000000000000000000000000000000000000000800000001000000000000100000000000000000000000000000000000000000000000000000000000080000000000000000000000000000000000000000000000000000020000000040000000000000000200000000000004000000100000000000000000000000000200000000000004000000000000000000001000000000000000000000000000000100000000000000000000000000000000000000000000000000000000000100000000000100000",
      "type": "0x2",
      "effectiveGasPrice": "0x8ce95f264"
    }
  ],
  "libraries": [],
  "pending": [],
  "returns": {},
  "timestamp": 1714647590,
  "chain": 137,
  "commit": "ce1cf17"
}