{
  "transactions": [
    {
      "hash": "0x49cd83c6e231d86676312e5c55d55bcc9ab78895f556eba4a3b4001ef53a540e",
      "transactionType": "CREATE",
      "contractName": "TokenDistribution",
      "contractAddress": "0xcB0aFD1A7b17E0C85740156eFe3F0D32a7fcc0Dd",
      "function": null,
      "arguments": [
        "0xf93A0FCdE9304CABefb004540838FF5234789429",
        "0xc2132D05D31c914a87C6611C10748AEb04B58e8F",
        "0x0A6513e40db6EB1b165753AD52E80663aeA50545",
        "0x6FEC51b4a3F9c68E45822B6C8aDcac3A2863f133"
      ],
      "transaction": {
        "type": "0x02",
        "from": "0x6fec51b4a3f9c68e45822b6c8adcac3a2863f133",
        "gas": "0xdd69d",
        "value": "0x0",
        "data": "0x608060405234801561001057600080fd5b50604051610bfc380380610bfc83398101604081905261002f91610230565b806001600160a01b03811661005f57604051631e4fbdf760e01b8152600060048201526024015b60405180910390fd5b610068816101c4565b506001600160a01b0384166100bf5760405162461bcd60e51b815260206004820152601c60248201527f546f6b656e20616464726573732063616e6e6f74206265207a65726f000000006044820152606401610056565b6001600160a01b0383166101155760405162461bcd60e51b815260206004820152601b60248201527f5553445420616464726573732063616e6e6f74206265207a65726f00000000006044820152606401610056565b6001600160a01b0382166101755760405162461bcd60e51b815260206004820152602160248201527f5072696365206665656420616464726573732063616e6e6f74206265207a65726044820152606f60f81b6064820152608401610056565b50600180546001600160a01b039485166001600160a01b031991821617909155600280549385169382169390931790925560038054919093169116179055670de0b6b3a7640000600455610284565b600080546001600160a01b038381166001600160a01b0319831681178455604051919092169283917f8be0079c531659141344cd1fd0a4f28419497f9722a3daafe3b4186f6b6457e09190a35050565b80516001600160a01b038116811461022b57600080fd5b919050565b6000806000806080858703121561024657600080fd5b61024f85610214565b935061025d60208601610214565b925061026b60408601610214565b915061027960608601610214565b905092959194509250565b610969806102936000396000f3fe608060405234801561001057600080fd5b50600436106100a95760003560e01c8063741bef1a11610071578063741bef1a146101255780638da5cb5b14610138578063b8d0cf4a14610149578063dd49756e1461015c578063f2fde38b1461016f578063fc0c546a1461018257600080fd5b80632f48ab7d146100ae5780633610724e146100de5780633ea521ef146100f3578063407fcc3114610106578063715018a61461011d575b600080fd5b6002546100c1906001600160a01b031681565b6040516001600160a01b0390911681526020015b60405180910390f35b6100f16100ec36600461080c565b610195565b005b6100f161010136600461080c565b6104cb565b61010f60045481565b6040519081526020016100d5565b6100f16105bf565b6003546100c1906001600160a01b031681565b6000546001600160a01b03166100c1565b6100f161015736600461080c565b6105d3565b6100f161016a36600461080c565b610660565b6100f161017d366004610825565b610751565b6001546100c1906001600160a01b031681565b600081116101f85760405162461bcd60e51b815260206004820152602560248201527f5553445420616d6f756e74206d7573742062652067726561746572207468616e604482015264207a65726f60d81b60648201526084015b60405180910390fd5b60035460408051633fabe5a360e21b815290516000926001600160a01b03169163feaf968c9160048083019260a09291908290030181865afa158015610242573d6000803e3d6000fd5b505050506040513d601f19601f820116820180604052508101906102669190610874565b505050915050600081136102b15760405162461bcd60e51b8152602060048201526012602482015271496e76616c6964207072696365206461746160701b60448201526064016101ef565b6040518181527fdeb0668e856be4237a3ff00cd22720a00e0a8b0772c2deece2a306ad60772f309060200160405180910390a160006305f5e1006102f583856108c4565b6102ff91906108ef565b905060006103128264e8d4a510006108c4565b6002546040516323b872dd60e01b8152336004820152306024820152604481018790529192506001600160a01b0316906323b872dd906064016020604051808303816000875af115801561036a573d6000803e3d6000fd5b505050506040513d601f19601f8201168201806040525081019061038e9190610911565b6103d15760405162461bcd60e51b81526020600482015260146024820152731554d115081d1c985b9cd9995c8819985a5b195960621b60448201526064016101ef565b60015460405163a9059cbb60e01b8152336004820152602481018390526001600160a01b039091169063a9059cbb906044016020604051808303816000875af1158015610422573d6000803e3d6000fd5b505050506040513d601f19601f820116820180604052508101906104469190610911565b61048a5760405162461bcd60e51b8152602060048201526015602482015274151bdad95b881d1c985b9cd9995c8819985a5b1959605a1b60448201526064016101ef565b604080518581526020810183905233917f8fafebcaf9d154343dad25669bfa277f4fbacd7ac6b0c4fed522580e040a0f33910160405180910390a250505050565b6104d361078f565b60025460405163a9059cbb60e01b8152336004820152602481018390526001600160a01b039091169063a9059cbb906044016020604051808303816000875af1158015610524573d6000803e3d6000fd5b505050506040513d601f19601f820116820180604052508101906105489190610911565b6105885760405162461bcd60e51b815260206004820152601160248201527015da5d1a191c985dd85b0819985a5b1959607a1b60448201526064016101ef565b6040518181527f7fca92c9929b53120be04d990950b67da0dc00465c2b07a3a9c7d7c7f4d7d26a906020015b60405180910390a150565b6105c761078f565b6105d160006107bc565b565b6105db61078f565b6000811161062b5760405162461bcd60e51b815260206004820152601f60248201527f5072696365206d7573742062652067726561746572207468616e207a65726f0060448201526064016101ef565b60048190556040518181527f6b361c807733cc94a3b7bda39c1c94dcc0511e91aa47b0f7f918068e93976890906020016105b4565b61066861078f565b6001546040516323b872dd60e01b8152336004820152306024820152604481018390526001600160a01b03909116906323b872dd906064016020604051808303816000875af11580156106bf573d6000803e3d6000fd5b505050506040513d601f19601f820116820180604052508101906106e39190610911565b6107215760405162461bcd60e51b815260206004820152600f60248201526e151c985b9cd9995c8819985a5b1959608a1b60448201526064016101ef565b6040518181527f77acf75e237f9aae98f997395832d522bdb695e4a9bd07704936aa889a3667d1906020016105b4565b61075961078f565b6001600160a01b03811661078357604051631e4fbdf760e01b8152600060048201526024016101ef565b61078c816107bc565b50565b6000546001600160a01b031633146105d15760405163118cdaa760e01b81523360048201526024016101ef565b600080546001600160a01b038381166001600160a01b0319831681178455604051919092169283917f8be0079c531659141344cd1fd0a4f28419497f9722a3daafe3b4186f6b6457e09190a35050565b60006020828403121561081e57600080fd5b5035919050565b60006020828403121561083757600080fd5b81356001600160a01b038116811461084e57600080fd5b9392505050565b805169ffffffffffffffffffff8116811461086f57600080fd5b919050565b600080600080600060a0868803121561088c57600080fd5b61089586610855565b94506020860151935060408601519250606086015191506108b860808701610855565b90509295509295909350565b80820281158282048414176108e957634e487b7160e01b600052601160045260246000fd5b92915050565b60008261090c57634e487b7160e01b600052601260045260246000fd5b500490565b60006020828403121561092357600080fd5b8151801515811461084e57600080fdfea26469706673582212202f142eb93d274d994fa4c98162723b22e735c4369799ecbc065a9ebb4188853c64736f6c63430008180033000000000000000000000000f93a0fcde9304cabefb004540838ff5234789429000000000000000000000000c2132d05d31c914a87c6611c10748aeb04b58e8f0000000000000000000000000a6513e40db6eb1b165753ad52e80663aea505450000000000000000000000006fec51b4a3f9c68e45822b6c8adcac3a2863f133",
        "nonce": "0x153",
        "accessList": []
      },
      "additionalContracts": [],
      "isFixedGasLimit": false
    },
    {
      "hash": "0x61af883b08938bb22d37668d13f600923ced89798f465fb68d83bb1e3a1911b4",
      "transactionType": "CALL",
      "contractName": null,
      "contractAddress": "0xf93A0FCdE9304CABefb004540838FF5234789429",
      "function": "approve(address,uint256)",
      "arguments": [
        "0xcB0aFD1A7b17E0C85740156eFe3F0D32a7fcc0Dd",
        "100000000000000000000"
      ],
      "transaction": {
        "type": "0x02",
        "from": "0x6fec51b4a3f9c68e45822b6c8adcac3a2863f133",
        "to": "0xf93a0fcde9304cabefb004540838ff5234789429",
        "gas": "0x10968",
        "value": "0x0",
        "data": "0x095ea7b3000000000000000000000000cb0afd1a7b17e0c85740156efe3f0d32a7fcc0dd0000000000000000000000000000000000000000000000056bc75e2d63100000",
        "nonce": "0x154",
        "accessList": []
      },
      "additionalContracts": [],
      "isFixedGasLimit": false
    },
    {
      "hash": "0xd42e9dd2f3336db7ae2a24e281372c9a3040888499331f03877c2c37648ebf65",
      "transactionType": "CALL",
      "contractName": "TokenDistribution",
      "contractAddress": "0xcB0aFD1A7b17E0C85740156eFe3F0D32a7fcc0Dd",
      "function": "depositTokens(uint256)",
      "arguments": [
        "100000000000000000000"
      ],
      "transaction": {
        "type": "0x02",
        "from": "0x6fec51b4a3f9c68e45822b6c8adcac3a2863f133",
        "to": "0xcb0afd1a7b17e0c85740156efe3f0d32a7fcc0dd",
        "gas": "0x1536d",
        "value": "0x0",
        "data": "0xdd49756e0000000000000000000000000000000000000000000000056bc75e2d63100000",
        "nonce": "0x155",
        "accessList": []
      },
      "additionalContracts": [],
      "isFixedGasLimit": false
    },
    {
      "hash": "0x74641906e18e934a9bb89130131af8f330551f22b7c20f99f3157c27a4fa4db6",
      "transactionType": "CALL",
      "contractName": "TokenDistribution",
      "contractAddress": "0xcB0aFD1A7b17E0C85740156eFe3F0D32a7fcc0Dd",
      "function": "setTokenPriceUSD(uint256)",
      "arguments": [
        "1000000000000000000"
      ],
      "transaction": {
        "type": "0x02",
        "from": "0x6fec51b4a3f9c68e45822b6c8adcac3a2863f133",
        "to": "0xcb0afd1a7b17e0c85740156efe3f0d32a7fcc0dd",
        "gas": "0x91a7",
        "value": "0x0",
        "data": "0xb8d0cf4a0000000000000000000000000000000000000000000000000de0b6b3a7640000",
        "nonce": "0x156",
        "accessList": []
      },
      "additionalContracts": [],
      "isFixedGasLimit": false
    }
  ],
  "receipts": [
    {
      "transactionHash": "0x49cd83c6e231d86676312e5c55d55bcc9ab78895f556eba4a3b4001ef53a540e",
      "transactionIndex": "0x4a",
      "blockHash": "0xd561548d0bab15618252aabc84dd975241e6381c764e4d16203fc7afaf2b5ae9",
      "blockNumber": "0x35e023f",
      "from": "0x6FEC51b4a3F9c68E45822B6C8aDcac3A2863f133",
      "to": null,
      "cumulativeGasUsed": "0xcf65aa",
      "gasUsed": "0xaa5df",
      "contractAddress": "0xcB0aFD1A7b17E0C85740156eFe3F0D32a7fcc0Dd",
      "logs": [
        {
          "address": "0xcB0aFD1A7b17E0C85740156eFe3F0D32a7fcc0Dd",
          "topics": [
            "0x8be0079c531659141344cd1fd0a4f28419497f9722a3daafe3b4186f6b6457e0",
            "0x0000000000000000000000000000000000000000000000000000000000000000",
            "0x0000000000000000000000006fec51b4a3f9c68e45822b6c8adcac3a2863f133"
          ],
          "data": "0x",
          "blockHash": "0xd561548d0bab15618252aabc84dd975241e6381c764e4d16203fc7afaf2b5ae9",
          "blockNumber": "0x35e023f",
          "transactionHash": "0x49cd83c6e231d86676312e5c55d55bcc9ab78895f556eba4a3b4001ef53a540e",
          "transactionIndex": "0x4a",
          "logIndex": "0x18d",
          "removed": false
        },
        {
          "address": "0x0000000000000000000000000000000000001010",
          "topics": [
            "0x4dfe1bbbcf077ddc3e01291eea2d5c70c2b422b415d95645b9adcfd678cb1d63",
            "0x0000000000000000000000000000000000000000000000000000000000001010",
            "0x0000000000000000000000006fec51b4a3f9c68e45822b6c8adcac3a2863f133",
            "0x0000000000000000000000007c7379531b2aee82e4ca06d4175d13b9cbeafd49"
          ],
          "data": "0x000000000000000000000000000000000000000000000000004a5ffd58eed4000000000000000000000000000000000000000000000000006571399622684a9600000000000000000000000000000000000000000002f55452e725135fee475f0000000000000000000000000000000000000000000000006526d998c979769600000000000000000000000000000000000000000002f55453318510b8dd1b5f",
          "blockHash": "0xd561548d0bab15618252aabc84dd975241e6381c764e4d16203fc7afaf2b5ae9",
          "blockNumber": "0x35e023f",
          "transactionHash": "0x49cd83c6e231d86676312e5c55d55bcc9ab78895f556eba4a3b4001ef53a540e",
          "transactionIndex": "0x4a",
          "logIndex": "0x18e",
          "removed": false
        }
      ],
      "status": "0x1",
      "logsBloom": "0x00000000000000000000000000000000000000000000000000800000000000400000000000000000000000000000000000008000020000000000000000000000000000000000000000000000000000800001000000400000000100000000000080000000020000000000000000000800080000000000000080000000000000400000000000000000000000000000000000000020000000000000000000000000200000000000000000000000000000000000000000000000000000000000004000000000000000000001000000000000000000000000000000100000000020000000000000000000002000000000000000000000000000000000000000100000",
      "type": "0x2",
      "effectiveGasPrice": "0x10197220be"
    },
    {
      "transactionHash": "0x61af883b08938bb22d37668d13f600923ced89798f465fb68d83bb1e3a1911b4",
      "transactionIndex": "0x74",
      "blockHash": "0x0c9e5c9a5096b41d15f587bb7378f3d8ca7a2ffe6bba908ec485b044d3126e09",
      "blockNumber": "0x35e0241",
      "from": "0x6FEC51b4a3F9c68E45822B6C8aDcac3A2863f133",
      "to": "0xf93A0FCdE9304CABefb004540838FF5234789429",
      "cumulativeGasUsed": "0x164e5e9",
      "gasUsed": "0xb57a",
      "contractAddress": null,
      "logs": [
        {
          "address": "0xf93A0FCdE9304CABefb004540838FF5234789429",
          "topics": [
            "0x8c5be1e5ebec7d5bd14f71427d1e84f3dd0314c0f7b2291e5b200ac8c7c3b925",
            "0x0000000000000000000000006fec51b4a3f9c68e45822b6c8adcac3a2863f133",
            "0x000000000000000000000000cb0afd1a7b17e0c85740156efe3f0d32a7fcc0dd"
          ],
          "data": "0x0000000000000000000000000000000000000000000000056bc75e2d63100000",
          "blockHash": "0x0c9e5c9a5096b41d15f587bb7378f3d8ca7a2ffe6bba908ec485b044d3126e09",
          "blockNumber": "0x35e0241",
          "transactionHash": "0x61af883b08938bb22d37668d13f600923ced89798f465fb68d83bb1e3a1911b4",
          "transactionIndex": "0x74",
          "logIndex": "0x2ab",
          "removed": false
        },
        {
          "address": "0x0000000000000000000000000000000000001010",
          "topics": [
            "0x4dfe1bbbcf077ddc3e01291eea2d5c70c2b422b415d95645b9adcfd678cb1d63",
            "0x0000000000000000000000000000000000000000000000000000000000001010",
            "0x0000000000000000000000006fec51b4a3f9c68e45822b6c8adcac3a2863f133",
            "0x000000000000000000000000794e44d1334a56fea7f4df12633b88820d0c5888"
          ],
          "data": "0x0000000000000000000000000000000000000000000000000004f399619bf80000000000000000000000000000000000000000000000000064c5ccb421774f1400000000000000000000000000000000000000000000003518fc5ee3fcf3e65c00000000000000000000000000000000000000000000000064c0d91abfdb57140000000000000000000000000000000000000000000000351901527d5e8fde5c",
          "blockHash": "0x0c9e5c9a5096b41d15f587bb7378f3d8ca7a2ffe6bba908ec485b044d3126e09",
          "blockNumber": "0x35e0241",
          "transactionHash": "0x61af883b08938bb22d37668d13f600923ced89798f465fb68d83bb1e3a1911b4",
          "transactionIndex": "0x74",
          "logIndex": "0x2ac",
          "removed": false
        }
      ],
      "status": "0x1",
      "logsBloom": "0x00000000000000000000000000000000000000000000000000040000000000000000000000001000000000000000000000008020020000000000000040200000000000000000000000000000000000800000000000000000000110020000000000000000000000000000000000000000000000000000000080000000000000000000000000000000000000000000000000000020000000000000000000000000220000000000000000000000000000040000000000000000000000000000004000001000000000000001000000000000000000000000000000100000000000000010000000000000000000000000000000000000000000000000000020100000",
      "type": "0x2",
      "effectiveGasPrice": "0x104ab8b893"
    },
    {
      "transactionHash": "0xd42e9dd2f3336db7ae2a24e281372c9a3040888499331f03877c2c37648ebf65",
      "transactionIndex": "0x37",
      "blockHash": "0x1599be9e7b426ea96a36b921f637113e7da6877227c5860274253ce2002d530b",
      "blockNumber": "0x35e0243",
      "from": "0x6FEC51b4a3F9c68E45822B6C8aDcac3A2863f133",
      "to": "0xcB0aFD1A7b17E0C85740156eFe3F0D32a7fcc0Dd",
      "cumulativeGasUsed": "0x5e0375",
      "gasUsed": "0xf5be",
      "contractAddress": null,
      "logs": [
        {
          "address": "0xf93A0FCdE9304CABefb004540838FF5234789429",
          "topics": [
            "0xddf252ad1be2c89b69c2b068fc378daa952ba7f163c4a11628f55a4df523b3ef",
            "0x0000000000000000000000006fec51b4a3f9c68e45822b6c8adcac3a2863f133",
            "0x000000000000000000000000cb0afd1a7b17e0c85740156efe3f0d32a7fcc0dd"
          ],
          "data": "0x0000000000000000000000000000000000000000000000056bc75e2d63100000",
          "blockHash": "0x1599be9e7b426ea96a36b921f637113e7da6877227c5860274253ce2002d530b",
          "blockNumber": "0x35e0243",
          "transactionHash": "0xd42e9dd2f3336db7ae2a24e281372c9a3040888499331f03877c2c37648ebf65",
          "transactionIndex": "0x37",
          "logIndex": "0xa9",
          "removed": false
        },
        {
          "address": "0xcB0aFD1A7b17E0C85740156eFe3F0D32a7fcc0Dd",
          "topics": [
            "0x77acf75e237f9aae98f997395832d522bdb695e4a9bd07704936aa889a3667d1"
          ],
          "data": "0x0000000000000000000000000000000000000000000000056bc75e2d63100000",
          "blockHash": "0x1599be9e7b426ea96a36b921f637113e7da6877227c5860274253ce2002d530b",
          "blockNumber": "0x35e0243",
          "transactionHash": "0xd42e9dd2f3336db7ae2a24e281372c9a3040888499331f03877c2c37648ebf65",
          "transactionIndex": "0x37",
          "logIndex": "0xaa",
          "removed": false
        },
        {
          "address": "0x0000000000000000000000000000000000001010",
          "topics": [
            "0x4dfe1bbbcf077ddc3e01291eea2d5c70c2b422b415d95645b9adcfd678cb1d63",
            "0x0000000000000000000000000000000000000000000000000000000000001010",
            "0x0000000000000000000000006fec51b4a3f9c68e45822b6c8adcac3a2863f133",
            "0x000000000000000000000000794e44d1334a56fea7f4df12633b88820d0c5888"
          ],
          "data": "0x0000000000000000000000000000000000000000000000000006b47d4615a80000000000000000000000000000000000000000000000000064ba401beaef6a0600000000000000000000000000000000000000000000003525132a4cb9377b2a00000000000000000000000000000000000000000000000064b38b9ea4d9c2060000000000000000000000000000000000000000000000352519dec9ff4d232a",
          "blockHash": "0x1599be9e7b426ea96a36b921f637113e7da6877227c5860274253ce2002d530b",
          "blockNumber": "0x35e0243",
          "transactionHash": "0xd42e9dd2f3336db7ae2a24e281372c9a3040888499331f03877c2c37648ebf65",
          "transactionIndex": "0x37",
          "logIndex": "0xab",
          "removed": false
        }
      ],
      "status": "0x1",
      "logsBloom": "0x00000000000020000000000000000000000000000000000000040000000000000000000000081000040000000000000000008020020000000000000040000000000000000000000000000008000000800000000000000000000110020000000080000000000000000000000000000000080000000000000080000010000000000000000000000000000000000000000000000020000000000000000000000000200000000000000000000000000000040000000000000000000000000000004000001002000000000001000000000000000000000000000000100000000000000000000000000000002000000000000000000000000000000000000020100000",
      "type": "0x2",
      "effectiveGasPrice": "0x10a0133b0c"
    },
    {
      "transactionHash": "0x74641906e18e934a9bb89130131af8f330551f22b7c20f99f3157c27a4fa4db6",
      "transactionIndex": "0x2f",
      "blockHash": "0x796fa524e5749f9897039ee6e8290abc6851511dac6013c569d18cf0d3ed8f52",
      "blockNumber": "0x35e0245",
      "from": "0x6FEC51b4a3F9c68E45822B6C8aDcac3A2863f133",
      "to": "0xcB0aFD1A7b17E0C85740156eFe3F0D32a7fcc0Dd",
      "cumulativeGasUsed": "0xa340f4",
      "gasUsed": "0x6974",
      "contractAddress": null,
      "logs": [
        {
          "address": "0xcB0aFD1A7b17E0C85740156eFe3F0D32a7fcc0Dd",
          "topics": [
            "0x6b361c807733cc94a3b7bda39c1c94dcc0511e91aa47b0f7f918068e93976890"
          ],
          "data": "0x0000000000000000000000000000000000000000000000000de0b6b3a7640000",
          "blockHash": "0x796fa524e5749f9897039ee6e8290abc6851511dac6013c569d18cf0d3ed8f52",
          "blockNumber": "0x35e0245",
          "transactionHash": "0x74641906e18e934a9bb89130131af8f330551f22b7c20f99f3157c27a4fa4db6",
          "transactionIndex": "0x2f",
          "logIndex": "0xfd",
          "removed": false
        },
        {
          "address": "0x0000000000000000000000000000000000001010",
          "topics": [
            "0x4dfe1bbbcf077ddc3e01291eea2d5c70c2b422b415d95645b9adcfd678cb1d63",
            "0x0000000000000000000000000000000000000000000000000000000000001010",
            "0x0000000000000000000000006fec51b4a3f9c68e45822b6c8adcac3a2863f133",
            "0x000000000000000000000000794e44d1334a56fea7f4df12633b88820d0c5888"
          ],
          "data": "0x0000000000000000000000000000000000000000000000000002e094e1b5f00000000000000000000000000000000000000000000000000064aa4a92b5271b1e0000000000000000000000000000000000000000000000353331c31d38f3d66b00000000000000000000000000000000000000000000000064a769fdd3712b1e0000000000000000000000000000000000000000000000353334a3b21aa9c66b",
          "blockHash": "0x796fa524e5749f9897039ee6e8290abc6851511dac6013c569d18cf0d3ed8f52",
          "blockNumber": "0x35e0245",
          "transactionHash": "0x74641906e18e934a9bb89130131af8f330551f22b7c20f99f3157c27a4fa4db6",
          "transactionIndex": "0x2f",
          "logIndex": "0xfe",
          "removed": false
        }
      ],
      "status": "0x1",
      "logsBloom": "0x00000000000000000000000000000000000000000000000000000000000000010000000000001000000000000000000000008000020000000000000000000000000000000000000000000000000000800000000000000000000100020000000080000000000000000000000000000000080000000000000080000000000000000000000000000000000000000000000000000020000000000000000000000000200000000000000000000100000000000000000000000000200000000000004000000000000000000001000000000000000000000000000000100000000000000000000000000000002000000000000000000000000000000000000020100000",
      "type": "0x2",
      "effectiveGasPrice": "0x100ac20ae7"
    }
  ],
  "libraries": [],
  "pending": [],
  "returns": {},
  "timestamp": 1714650175,
  "chain": 137,
  "commit": "ce1cf17"
}