{
  "transactions": [
    {
      "hash": "0xc3ee88526e76bf7ca97bf6bd91805d16afd806c7ac5877fade025c7a2bc372f2",
      "transactionType": "CREATE",
      "contractName": "TokenDistribution",
      "contractAddress": "0x2C12242E94d85153135e645b3c7e9FC39a9356e8",
      "function": null,
      "arguments": [
        "0xf93A0FCdE9304CABefb004540838FF5234789429",
        "0xc2132D05D31c914a87C6611C10748AEb04B58e8F",
        "0x0A6513e40db6EB1b165753AD52E80663aeA50545",
        "0x6FEC51b4a3F9c68E45822B6C8aDcac3A2863f133"
      ],
      "transaction": {
        "type": "0x02",
        "from": "0x6fec51b4a3f9c68e45822b6c8adcac3a2863f133",
        "gas": "0xdb243",
        "value": "0x0",
        "data": "0x608060405234801561001057600080fd5b50604051610bdb380380610bdb83398101604081905261002f91610230565b806001600160a01b03811661005f57604051631e4fbdf760e01b8152600060048201526024015b60405180910390fd5b610068816101c4565b506001600160a01b0384166100bf5760405162461bcd60e51b815260206004820152601c60248201527f546f6b656e20616464726573732063616e6e6f74206265207a65726f000000006044820152606401610056565b6001600160a01b0383166101155760405162461bcd60e51b815260206004820152601b60248201527f5553445420616464726573732063616e6e6f74206265207a65726f00000000006044820152606401610056565b6001600160a01b0382166101755760405162461bcd60e51b815260206004820152602160248201527f5072696365206665656420616464726573732063616e6e6f74206265207a65726044820152606f60f81b6064820152608401610056565b50600180546001600160a01b039485166001600160a01b031991821617909155600280549385169382169390931790925560038054919093169116179055670de0b6b3a7640000600455610284565b600080546001600160a01b038381166001600160a01b0319831681178455604051919092169283917f8be0079c531659141344cd1fd0a4f28419497f9722a3daafe3b4186f6b6457e09190a35050565b80516001600160a01b038116811461022b57600080fd5b919050565b6000806000806080858703121561024657600080fd5b61024f85610214565b935061025d60208601610214565b925061026b60408601610214565b915061027960608601610214565b905092959194509250565b610948806102936000396000f3fe608060405234801561001057600080fd5b50600436106100a95760003560e01c8063741bef1a11610071578063741bef1a146101255780638da5cb5b14610138578063b8d0cf4a14610149578063dd49756e1461015c578063f2fde38b1461016f578063fc0c546a1461018257600080fd5b80632f48ab7d146100ae5780633610724e146100de5780633ea521ef146100f3578063407fcc3114610106578063715018a61461011d575b600080fd5b6002546100c1906001600160a01b031681565b6040516001600160a01b0390911681526020015b60405180910390f35b6100f16100ec3660046107eb565b610195565b005b6100f16101013660046107eb565b6104aa565b61010f60045481565b6040519081526020016100d5565b6100f161059e565b6003546100c1906001600160a01b031681565b6000546001600160a01b03166100c1565b6100f16101573660046107eb565b6105b2565b6100f161016a3660046107eb565b61063f565b6100f161017d366004610804565b610730565b6001546100c1906001600160a01b031681565b600081116101f85760405162461bcd60e51b815260206004820152602560248201527f5553445420616d6f756e74206d7573742062652067726561746572207468616e604482015264207a65726f60d81b60648201526084015b60405180910390fd5b60035460408051633fabe5a360e21b815290516000926001600160a01b03169163feaf968c9160048083019260a09291908290030181865afa158015610242573d6000803e3d6000fd5b505050506040513d601f19601f820116820180604052508101906102669190610853565b505050915050600081136102b15760405162461bcd60e51b8152602060048201526012602482015271496e76616c6964207072696365206461746160701b60448201526064016101ef565b60006305f5e1006102c283856108a3565b6102cc91906108ce565b9050600060045482670de0b6b3a76400006102e791906108a3565b6102f191906108ce565b6002546040516323b872dd60e01b8152336004820152306024820152604481018790529192506001600160a01b0316906323b872dd906064016020604051808303816000875af1158015610349573d6000803e3d6000fd5b505050506040513d601f19601f8201168201806040525081019061036d91906108f0565b6103b05760405162461bcd60e51b81526020600482015260146024820152731554d115081d1c985b9cd9995c8819985a5b195960621b60448201526064016101ef565b60015460405163a9059cbb60e01b8152336004820152602481018390526001600160a01b039091169063a9059cbb906044016020604051808303816000875af1158015610401573d6000803e3d6000fd5b505050506040513d601f19601f8201168201806040525081019061042591906108f0565b6104695760405162461bcd60e51b8152602060048201526015602482015274151bdad95b881d1c985b9cd9995c8819985a5b1959605a1b60448201526064016101ef565b604080518581526020810183905233917f8fafebcaf9d154343dad25669bfa277f4fbacd7ac6b0c4fed522580e040a0f33910160405180910390a250505050565b6104b261076e565b60025460405163a9059cbb60e01b8152336004820152602481018390526001600160a01b039091169063a9059cbb906044016020604051808303816000875af1158015610503573d6000803e3d6000fd5b505050506040513d601f19601f8201168201806040525081019061052791906108f0565b6105675760405162461bcd60e51b815260206004820152601160248201527015da5d1a191c985dd85b0819985a5b1959607a1b60448201526064016101ef565b6040518181527f7fca92c9929b53120be04d990950b67da0dc00465c2b07a3a9c7d7c7f4d7d26a906020015b60405180910390a150565b6105a661076e565b6105b0600061079b565b565b6105ba61076e565b6000811161060a5760405162461bcd60e51b815260206004820152601f60248201527f5072696365206d7573742062652067726561746572207468616e207a65726f0060448201526064016101ef565b60048190556040518181527f6b361c807733cc94a3b7bda39c1c94dcc0511e91aa47b0f7f918068e9397689090602001610593565b61064761076e565b6001546040516323b872dd60e01b8152336004820152306024820152604481018390526001600160a01b03909116906323b872dd906064016020604051808303816000875af115801561069e573d6000803e3d6000fd5b505050506040513d601f19601f820116820180604052508101906106c291906108f0565b6107005760405162461bcd60e51b815260206004820152600f60248201526e151c985b9cd9995c8819985a5b1959608a1b60448201526064016101ef565b6040518181527f77acf75e237f9aae98f997395832d522bdb695e4a9bd07704936aa889a3667d190602001610593565b61073861076e565b6001600160a01b03811661076257604051631e4fbdf760e01b8152600060048201526024016101ef565b61076b8161079b565b50565b6000546001600160a01b031633146105b05760405163118cdaa760e01b81523360048201526024016101ef565b600080546001600160a01b038381166001600160a01b0319831681178455604051919092169283917f8be0079c531659141344cd1fd0a4f28419497f9722a3daafe3b4186f6b6457e09190a35050565b6000602082840312156107fd57600080fd5b5035919050565b60006020828403121561081657600080fd5b81356001600160a01b038116811461082d57600080fd5b9392505050565b805169ffffffffffffffffffff8116811461084e57600080fd5b919050565b600080600080600060a0868803121561086b57600080fd5b61087486610834565b945060208601519350604086015192506060860151915061089760808701610834565b90509295509295909350565b80820281158282048414176108c857634e487b7160e01b600052601160045260246000fd5b92915050565b6000826108eb57634e487b7160e01b600052601260045260246000fd5b500490565b60006020828403121561090257600080fd5b8151801515811461082d57600080fdfea2646970667358221220a121a71b689c74abb9abb7ea51ba1126308df6a58a3941f5ed980b033d5d912c64736f6c63430008180033000000000000000000000000f93a0fcde9304cabefb004540838ff5234789429000000000000000000000000c2132d05d31c914a87c6611c10748aeb04b58e8f0000000000000000000000000a6513e40db6eb1b165753ad52e80663aea505450000000000000000000000006fec51b4a3f9c68e45822b6c8adcac3a2863f133",
        "nonce": "0x13c",
        "accessList": []
      },
      "additionalContracts": [],
      "isFixedGasLimit": false
    },
    {
      "hash": "0x27ec0a4c2b351fe3adbd130b60d1e33719807191356e7d9dceaf3db807f0831f",
      "transactionType": "CALL",
      "contractName": null,
      "contractAddress": "0xf93A0FCdE9304CABefb004540838FF5234789429",
      "function": "approve(address,uint256)",
      "arguments": [
        "0x2C12242E94d85153135e645b3c7e9FC39a9356e8",
        "1000000000000000000000"
      ],
      "transaction": {
        "type": "0x02",
        "from": "0x6fec51b4a3f9c68e45822b6c8adcac3a2863f133",
        "to": "0xf93a0fcde9304cabefb004540838ff5234789429",
        "gas": "0x10968",
        "value": "0x0",
        "data": "0x095ea7b30000000000000000000000002c12242e94d85153135e645b3c7e9fc39a9356e800000000000000000000000000000000000000000000003635c9adc5dea00000",
        "nonce": "0x13d",
        "accessList": []
      },
      "additionalContracts": [],
      "isFixedGasLimit": false
    },
    {
      "hash": "0x2827980712b389a4d24b7fd5cc186f4eeb795d0a98d2353a3a8e2a6fde72a461",
      "transactionType": "CALL",
      "contractName": "TokenDistribution",
      "contractAddress": "0x2C12242E94d85153135e645b3c7e9FC39a9356e8",
      "function": "depositTokens(uint256)",
      "arguments": [
        "1000000000000000000000"
      ],
      "transaction": {
        "type": "0x02",
        "from": "0x6fec51b4a3f9c68e45822b6c8adcac3a2863f133",
        "to": "0x2c12242e94d85153135e645b3c7e9fc39a9356e8",
        "gas": "0x1536d",
        "value": "0x0",
        "data": "0xdd49756e00000000000000000000000000000000000000000000003635c9adc5dea00000",
        "nonce": "0x13e",
        "accessList": []
      },
      "additionalContracts": [],
      "isFixedGasLimit": false
    },
    {
      "hash": "0xd9e03c5a4205fc4c6232fdda4f8997c52ae8054f463234fd9a7c2a01b648ed43",
      "transactionType": "CALL",
      "contractName": "TokenDistribution",
      "contractAddress": "0x2C12242E94d85153135e645b3c7e9FC39a9356e8",
      "function": "setTokenPriceUSD(uint256)",
      "arguments": [
        "1000000000000000000"
      ],
      "transaction": {
        "type": "0x02",
        "from": "0x6fec51b4a3f9c68e45822b6c8adcac3a2863f133",
        "to": "0x2c12242e94d85153135e645b3c7e9fc39a9356e8",
        "gas": "0x91a7",
        "value": "0x0",
        "data": "0xb8d0cf4a0000000000000000000000000000000000000000000000000de0b6b3a7640000",
        "nonce": "0x13f",
        "accessList": []
      },
      "additionalContracts": [],
      "isFixedGasLimit": false
    }
  ],
  "receipts": [
    {
      "transactionHash": "0xc3ee88526e76bf7ca97bf6bd91805d16afd806c7ac5877fade025c7a2bc372f2",
      "transactionIndex": "0x59",
      "blockHash": "0xfb414faab73bcf5a9d3b8f0d1b72143989e1053530613e5936767dd1f1223a29",
      "blockNumber": "0x359f86f",
      "from": "0x6FEC51b4a3F9c68E45822B6C8aDcac3A2863f133",
      "to": null,
      "cumulativeGasUsed": "0x12d94ca",
      "gasUsed": "0xa89e6",
      "contractAddress": "0x2C12242E94d85153135e645b3c7e9FC39a9356e8",
      "logs": [
        {
          "address": "0x2C12242E94d85153135e645b3c7e9FC39a9356e8",
          "topics": [
            "0x8be0079c531659141344cd1fd0a4f28419497f9722a3daafe3b4186f6b6457e0",
            "0x0000000000000000000000000000000000000000000000000000000000000000",
            "0x0000000000000000000000006fec51b4a3f9c68e45822b6c8adcac3a2863f133"
          ],
          "data": "0x",
          "blockHash": "0xfb414faab73bcf5a9d3b8f0d1b72143989e1053530613e5936767dd1f1223a29",
          "blockNumber": "0x359f86f",
          "transactionHash": "0xc3ee88526e76bf7ca97bf6bd91805d16afd806c7ac5877fade025c7a2bc372f2",
          "transactionIndex": "0x59",
          "logIndex": "0x2bd",
          "removed": false
        },
        {
          "address": "0x0000000000000000000000000000000000001010",
          "topics": [
            "0x4dfe1bbbcf077ddc3e01291eea2d5c70c2b422b415d95645b9adcfd678cb1d63",
            "0x0000000000000000000000000000000000000000000000000000000000001010",
            "0x0000000000000000000000006fec51b4a3f9c68e45822b6c8adcac3a2863f133",
            "0x000000000000000000000000794e44d1334a56fea7f4df12633b88820d0c5888"
          ],
          "data": "0x00000000000000000000000000000000000000000000000000499c9a5718880000000000000000000000000000000000000000000000000067c8c83f1f4277e100000000000000000000000000000000000000000000024b55e831e0ea14d965000000000000000000000000000000000000000000000000677f2ba4c829efe100000000000000000000000000000000000000000000024b5631ce7b412d6165",
          "blockHash": "0xfb414faab73bcf5a9d3b8f0d1b72143989e1053530613e5936767dd1f1223a29",
          "blockNumber": "0x359f86f",
          "transactionHash": "0xc3ee88526e76bf7ca97bf6bd91805d16afd806c7ac5877fade025c7a2bc372f2",
          "transactionIndex": "0x59",
          "logIndex": "0x2be",
          "removed": false
        }
      ],
      "status": "0x1",
      "logsBloom": "0x00000000000000000000000000000000000000000000000000800000000000000000000000001000000000000000000000008000020000000000000000000000000000000000000000000000000000800001000000000000000100020000000000000000020000000000000000000800000000002000000080000000000000400000000000000000000000000000000000000020000000000000000000000000200000000000000000000000000000000000000000000000000000000000004000000000000000000001000000000001000000000000000000100000000020000800000000000000000000000000000000000000000000000000000020100000",
      "type": "0x2",
      "effectiveGasPrice": "0x1153d46c7f"
    }
  ],
  "libraries": [],
  "pending": [],
  "returns": {},
  "timestamp": 1714028373,
  "chain": 137,
  "commit": "ce1cf17"
}