{
  "transactions": [
    {
      "hash": "0x1e680ce3c2c67d75e1fb6fd18e6caec316318e24e7a78c7c461608d171c87ea5",
      "transactionType": "CREATE",
      "contractName": "TokenDistribution",
      "contractAddress": "0x807D436d4fCff349B2733d9d67E14c662eB285d6",
      "function": null,
      "arguments": [
        "0xf93A0FCdE9304CABefb004540838FF5234789429",
        "0xc2132D05D31c914a87C6611C10748AEb04B58e8F",
        "0x0A6513e40db6EB1b165753AD52E80663aeA50545",
        "0x6FEC51b4a3F9c68E45822B6C8aDcac3A2863f133"
      ],
      "transaction": {
        "type": "0x02",
        "from": "0x6fec51b4a3f9c68e45822b6c8adcac3a2863f133",
        "gas": "0xdc19e",
        "value": "0x0",
        "data": "0x608060405234801561001057600080fd5b50604051610be9380380610be983398101604081905261002f91610230565b806001600160a01b03811661005f57604051631e4fbdf760e01b8152600060048201526024015b60405180910390fd5b610068816101c4565b506001600160a01b0384166100bf5760405162461bcd60e51b815260206004820152601c60248201527f546f6b656e20616464726573732063616e6e6f74206265207a65726f000000006044820152606401610056565b6001600160a01b0383166101155760405162461bcd60e51b815260206004820152601b60248201527f5553445420616464726573732063616e6e6f74206265207a65726f00000000006044820152606401610056565b6001600160a01b0382166101755760405162461bcd60e51b815260206004820152602160248201527f5072696365206665656420616464726573732063616e6e6f74206265207a65726044820152606f60f81b6064820152608401610056565b50600180546001600160a01b039485166001600160a01b031991821617909155600280549385169382169390931790925560038054919093169116179055670de0b6b3a7640000600455610284565b600080546001600160a01b038381166001600160a01b0319831681178455604051919092169283917f8be0079c531659141344cd1fd0a4f28419497f9722a3daafe3b4186f6b6457e09190a35050565b80516001600160a01b038116811461022b57600080fd5b919050565b6000806000806080858703121561024657600080fd5b61024f85610214565b935061025d60208601610214565b925061026b60408601610214565b915061027960608601610214565b905092959194509250565b610956806102936000396000f3fe608060405234801561001057600080fd5b50600436106100a95760003560e01c8063741bef1a11610071578063741bef1a146101255780638da5cb5b14610138578063b8d0cf4a14610149578063dd49756e1461015c578063f2fde38b1461016f578063fc0c546a1461018257600080fd5b80632f48ab7d146100ae5780633610724e146100de5780633ea521ef146100f3578063407fcc3114610106578063715018a61461011d575b600080fd5b6002546100c1906001600160a01b031681565b6040516001600160a01b0390911681526020015b60405180910390f35b6100f16100ec3660046107ff565b610195565b005b6100f16101013660046107ff565b61049b565b61010f60045481565b6040519081526020016100d5565b6100f161058f565b6003546100c1906001600160a01b031681565b6000546001600160a01b03166100c1565b6100f16101573660046107ff565b6105a3565b6100f161016a3660046107ff565b610630565b6100f161017d366004610818565b610721565b6001546100c1906001600160a01b031681565b600081116101f85760405162461bcd60e51b815260206004820152602560248201527f5553445420616d6f756e74206d7573742062652067726561746572207468616e604482015264207a65726f60d81b60648201526084015b60405180910390fd5b60035460408051633fabe5a360e21b815290516000926001600160a01b03169163feaf968c9160048083019260a09291908290030181865afa158015610242573d6000803e3d6000fd5b505050506040513d601f19601f820116820180604052508101906102669190610867565b505050915050600081136102b15760405162461bcd60e51b8152602060048201526012602482015271496e76616c6964207072696365206461746160701b60448201526064016101ef565b60006102bd838361075f565b9050600060045482670de0b6b3a76400006102d891906108b7565b6102e291906108dc565b6002546040516323b872dd60e01b8152336004820152306024820152604481018790529192506001600160a01b0316906323b872dd906064016020604051808303816000875af115801561033a573d6000803e3d6000fd5b505050506040513d601f19601f8201168201806040525081019061035e91906108fe565b6103a15760405162461bcd60e51b81526020600482015260146024820152731554d115081d1c985b9cd9995c8819985a5b195960621b60448201526064016101ef565b60015460405163a9059cbb60e01b8152336004820152602481018390526001600160a01b039091169063a9059cbb906044016020604051808303816000875af11580156103f2573d6000803e3d6000fd5b505050506040513d601f19601f8201168201806040525081019061041691906108fe565b61045a5760405162461bcd60e51b8152602060048201526015602482015274151bdad95b881d1c985b9cd9995c8819985a5b1959605a1b60448201526064016101ef565b604080518581526020810183905233917f8fafebcaf9d154343dad25669bfa277f4fbacd7ac6b0c4fed522580e040a0f33910160405180910390a250505050565b6104a3610782565b60025460405163a9059cbb60e01b8152336004820152602481018390526001600160a01b039091169063a9059cbb906044016020604051808303816000875af11580156104f4573d6000803e3d6000fd5b505050506040513d601f19601f8201168201806040525081019061051891906108fe565b6105585760405162461bcd60e51b815260206004820152601160248201527015da5d1a191c985dd85b0819985a5b1959607a1b60448201526064016101ef565b6040518181527f7fca92c9929b53120be04d990950b67da0dc00465c2b07a3a9c7d7c7f4d7d26a906020015b60405180910390a150565b610597610782565b6105a160006107af565b565b6105ab610782565b600081116105fb5760405162461bcd60e51b815260206004820152601f60248201527f5072696365206d7573742062652067726561746572207468616e207a65726f0060448201526064016101ef565b60048190556040518181527f6b361c807733cc94a3b7bda39c1c94dcc0511e91aa47b0f7f918068e9397689090602001610584565b610638610782565b6001546040516323b872dd60e01b8152336004820152306024820152604481018390526001600160a01b03909116906323b872dd906064016020604051808303816000875af115801561068f573d6000803e3d6000fd5b505050506040513d601f19601f820116820180604052508101906106b391906108fe565b6106f15760405162461bcd60e51b815260206004820152600f60248201526e151c985b9cd9995c8819985a5b1959608a1b60448201526064016101ef565b6040518181527f77acf75e237f9aae98f997395832d522bdb695e4a9bd07704936aa889a3667d190602001610584565b610729610782565b6001600160a01b03811661075357604051631e4fbdf760e01b8152600060048201526024016101ef565b61075c816107af565b50565b6000620f424061076f83856108b7565b61077991906108dc565b90505b92915050565b6000546001600160a01b031633146105a15760405163118cdaa760e01b81523360048201526024016101ef565b600080546001600160a01b038381166001600160a01b0319831681178455604051919092169283917f8be0079c531659141344cd1fd0a4f28419497f9722a3daafe3b4186f6b6457e09190a35050565b60006020828403121561081157600080fd5b5035919050565b60006020828403121561082a57600080fd5b81356001600160a01b038116811461084157600080fd5b9392505050565b805169ffffffffffffffffffff8116811461086257600080fd5b919050565b600080600080600060a0868803121561087f57600080fd5b61088886610848565b94506020860151935060408601519250606086015191506108ab60808701610848565b90509295509295909350565b808202811582820484141761077c57634e487b7160e01b600052601160045260246000fd5b6000826108f957634e487b7160e01b600052601260045260246000fd5b500490565b60006020828403121561091057600080fd5b8151801515811461084157600080fdfea2646970667358221220b65a8b0249003fbfcfe7aa0951f2610d4b0d0f48a315d2070ac40e963ae6056864736f6c63430008180033000000000000000000000000f93a0fcde9304cabefb004540838ff5234789429000000000000000000000000c2132d05d31c914a87c6611c10748aeb04b58e8f0000000000000000000000000a6513e40db6eb1b165753ad52e80663aea505450000000000000000000000006fec51b4a3f9c68e45822b6c8adcac3a2863f133",
        "nonce": "0x142",
        "accessList": []
      },
      "additionalContracts": [],
      "isFixedGasLimit": false
    },
    {
      "hash": "0x9751f0d9b98024e1a87e0947469545cfe73e000a2f32c0741a67a8a86da95d41",
      "transactionType": "CALL",
      "contractName": null,
      "contractAddress": "0xf93A0FCdE9304CABefb004540838FF5234789429",
      "function": "approve(address,uint256)",
      "arguments": [
        "0x807D436d4fCff349B2733d9d67E14c662eB285d6",
        "100000000000000000000"
      ],
      "transaction": {
        "type": "0x02",
        "from": "0x6fec51b4a3f9c68e45822b6c8adcac3a2863f133",
        "to": "0xf93a0fcde9304cabefb004540838ff5234789429",
        "gas": "0x10968",
        "value": "0x0",
        "data": "0x095ea7b3000000000000000000000000807d436d4fcff349b2733d9d67e14c662eb285d60000000000000000000000000000000000000000000000056bc75e2d63100000",
        "nonce": "0x143",
        "accessList": []
      },
      "additionalContracts": [],
      "isFixedGasLimit": false
    },
    {
      "hash": "0x4fd8d5df1fe09f869e8dc70332b07baeaf4192354e29c94e438f1c6fe55314c6",
      "transactionType": "CALL",
      "contractName": "TokenDistribution",
      "contractAddress": "0x807D436d4fCff349B2733d9d67E14c662eB285d6",
      "function": "depositTokens(uint256)",
      "arguments": [
        "100000000000000000000"
      ],
      "transaction": {
        "type": "0x02",
        "from": "0x6fec51b4a3f9c68e45822b6c8adcac3a2863f133",
        "to": "0x807d436d4fcff349b2733d9d67e14c662eb285d6",
        "gas": "0x1536d",
        "value": "0x0",
        "data": "0xdd49756e0000000000000000000000000000000000000000000000056bc75e2d63100000",
        "nonce": "0x144",
        "accessList": []
      },
      "additionalContracts": [],
      "isFixedGasLimit": false
    },
    {
      "hash": "0x71f672fced3c7d4756d906e5ffb38bd43e83bcc6a360c87ce12672e821b78059",
      "transactionType": "CALL",
      "contractName": "TokenDistribution",
      "contractAddress": "0x807D436d4fCff349B2733d9d67E14c662eB285d6",
      "function": "setTokenPriceUSD(uint256)",
      "arguments": [
        "1000000000000000000"
      ],
      "transaction": {
        "type": "0x02",
        "from": "0x6fec51b4a3f9c68e45822b6c8adcac3a2863f133",
        "to": "0x807d436d4fcff349b2733d9d67e14c662eb285d6",
        "gas": "0x91a7",
        "value": "0x0",
        "data": "0xb8d0cf4a0000000000000000000000000000000000000000000000000de0b6b3a7640000",
        "nonce": "0x145",
        "accessList": []
      },
      "additionalContracts": [],
      "isFixedGasLimit": false
    }
  ],
  "receipts": [
    {
      "transactionHash": "0x1e680ce3c2c67d75e1fb6fd18e6caec316318e24e7a78c7c461608d171c87ea5",
      "transactionIndex": "0x3d",
      "blockHash": "0x8e7449d3f509eba0be19dc199c8e1c62a9fef5fd8535e09107d448ad9b1de7e6",
      "blockNumber": "0x35dfb15",
      "from": "0x6FEC51b4a3F9c68E45822B6C8aDcac3A2863f133",
      "to": null,
      "cumulativeGasUsed": "0xe8c987",
      "gasUsed": "0xa95b8",
      "contractAddress": "0x807D436d4fCff349B2733d9d67E14c662eB285d6",
      "logs": [
        {
          "address": "0x807D436d4fCff349B2733d9d67E14c662eB285d6",
          "topics": [
            "0x8be0079c531659141344cd1fd0a4f28419497f9722a3daafe3b4186f6b6457e0",
            "0x0000000000000000000000000000000000000000000000000000000000000000",
            "0x0000000000000000000000006fec51b4a3f9c68e45822b6c8adcac3a2863f133"
          ],
          "data": "0x",
          "blockHash": "0x8e7449d3f509eba0be19dc199c8e1c62a9fef5fd8535e09107d448ad9b1de7e6",
          "blockNumber": "0x35dfb15",
          "transactionHash": "0x1e680ce3c2c67d75e1fb6fd18e6caec316318e24e7a78c7c461608d171c87ea5",
          "transactionIndex": "0x3d",
          "logIndex": "0x108",
          "removed": false
        },
        {
          "address": "0x0000000000000000000000000000000000001010",
          "topics": [
            "0x4dfe1bbbcf077ddc3e01291eea2d5c70c2b422b415d95645b9adcfd678cb1d63",
            "0x0000000000000000000000000000000000000000000000000000000000001010",
            "0x0000000000000000000000006fec51b4a3f9c68e45822b6c8adcac3a2863f133",
            "0x000000000000000000000000eedba2484aaf940f37cd3cd21a5d7c4a7dafbfc0"
          ],
          "data": "0x0000000000000000000000000000000000000000000000000049ef2ab4bfa00000000000000000000000000000000000000000000000000066c016c3f90869f300000000000000000000000000000000000000000001242f9f4d9683d6cee3f3000000000000000000000000000000000000000000000000667627994448c9f300000000000000000000000000000000000000000001242f9f9785ae8b8e83f3",
          "blockHash": "0x8e7449d3f509eba0be19dc199c8e1c62a9fef5fd8535e09107d448ad9b1de7e6",
          "blockNumber": "0x35dfb15",
          "transactionHash": "0x1e680ce3c2c67d75e1fb6fd18e6caec316318e24e7a78c7c461608d171c87ea5",
          "transactionIndex": "0x3d",
          "logIndex": "0x109",
          "removed": false
        }
      ],
      "status": "0x1",
      "logsBloom": "0x00000000000000000000000000000000000000000000000000800000000000000000000000000000000000000000000000008000020000000000000000000000000000000000000000000000000000800001000000000000000100000000000000000000020000000000000000000800000000000100000080000000000000400000004002000000000000000000000000000020000000000000000000000000200000004000000000000000000000000000000000000000000020000000004000000000000000000001000000000000000000000000000000100000000020000000000000000000000000000010000000000000000000000000000000100000",
      "type": "0x2",
      "effectiveGasPrice": "0x76c4cf2b8"
    },
    {
      "transactionHash": "0x9751f0d9b98024e1a87e0947469545cfe73e000a2f32c0741a67a8a86da95d41",
      "transactionIndex": "0x3e",
      "blockHash": "0x8e7449d3f509eba0be19dc199c8e1c62a9fef5fd8535e09107d448ad9b1de7e6",
      "blockNumber": "0x35dfb15",
      "from": "0x6FEC51b4a3F9c68E45822B6C8aDcac3A2863f133",
      "to": "0xf93A0FCdE9304CABefb004540838FF5234789429",
      "cumulativeGasUsed": "0xe97f01",
      "gasUsed": "0xb57a",
      "contractAddress": null,
      "logs": [
        {
          "address": "0xf93A0FCdE9304CABefb004540838FF5234789429",
          "topics": [
            "0x8c5be1e5ebec7d5bd14f71427d1e84f3dd0314c0f7b2291e5b200ac8c7c3b925",
            "0x0000000000000000000000006fec51b4a3f9c68e45822b6c8adcac3a2863f133",
            "0x000000000000000000000000807d436d4fcff349b2733d9d67e14c662eb285d6"
          ],
          "data": "0x0000000000000000000000000000000000000000000000056bc75e2d63100000",
          "blockHash": "0x8e7449d3f509eba0be19dc199c8e1c62a9fef5fd8535e09107d448ad9b1de7e6",
          "blockNumber": "0x35dfb15",
          "transactionHash": "0x9751f0d9b98024e1a87e0947469545cfe73e000a2f32c0741a67a8a86da95d41",
          "transactionIndex": "0x3e",
          "logIndex": "0x10a",
          "removed": false
        },
        {
          "address": "0x0000000000000000000000000000000000001010",
          "topics": [
            "0x4dfe1bbbcf077ddc3e01291eea2d5c70c2b422b415d95645b9adcfd678cb1d63",
            "0x0000000000000000000000000000000000000000000000000000000000001010",
            "0x0000000000000000000000006fec51b4a3f9c68e45822b6c8adcac3a2863f133",
            "0x000000000000000000000000eedba2484aaf940f37cd3cd21a5d7c4a7dafbfc0"
          ],
          "data": "0x0000000000000000000000000000000000000000000000000004f399619bf80000000000000000000000000000000000000000000000000066718463dd44ddb300000000000000000000000000000000000000000001242f9f9785ae8b8e83f3000000000000000000000000000000000000000000000000666c90ca7ba8e5b300000000000000000000000000000000000000000001242f9f9c7947ed2a7bf3",
          "blockHash": "0x8e7449d3f509eba0be19dc199c8e1c62a9fef5fd8535e09107d448ad9b1de7e6",
          "blockNumber": "0x35dfb15",
          "transactionHash": "0x9751f0d9b98024e1a87e0947469545cfe73e000a2f32c0741a67a8a86da95d41",
          "transactionIndex": "0x3e",
          "logIndex": "0x10b",
          "removed": false
        }
      ],
      "status": "0x1",
      "logsBloom": "0x00000000000000000000000002000000000000000000000000040000000000000000000000000080000000000000000000008020020000000000000000200000000000000000000000000000000000800000000000000000000100000000000000000000000000000000000000000000000000000100000080000000000000000000004000000000000000000000000000000020000000000000000000000000220000000000000000000000040000040000000000000000000020000000004000000000000000000001000000000000000000000000000000100000000000000010000000000000000000000000000000000000000000000000000000100000",
      "type": "0x2",
      "effectiveGasPrice": "0x76c4cf2b8"
    },
    {
      "transactionHash": "0x4fd8d5df1fe09f869e8dc70332b07baeaf4192354e29c94e438f1c6fe55314c6",
      "transactionIndex": "0x49",
      "blockHash": "0xdaa1651ae1b462c8fe25ceb10b6fba8cba241933a0c808909f012d460b48417d",
      "blockNumber": "0x35dfb17",
      "from": "0x6FEC51b4a3F9c68E45822B6C8aDcac3A2863f133",
      "to": "0x807D436d4fCff349B2733d9d67E14c662eB285d6",
      "cumulativeGasUsed": "0x9e5951",
      "gasUsed": "0xf5be",
      "contractAddress": null,
      "logs": [
        {
          "address": "0xf93A0FCdE9304CABefb004540838FF5234789429",
          "topics": [
            "0xddf252ad1be2c89b69c2b068fc378daa952ba7f163c4a11628f55a4df523b3ef",
            "0x0000000000000000000000006fec51b4a3f9c68e45822b6c8adcac3a2863f133",
            "0x000000000000000000000000807d436d4fcff349b2733d9d67e14c662eb285d6"
          ],
          "data": "0x0000000000000000000000000000000000000000000000056bc75e2d63100000",
          "blockHash": "0xdaa1651ae1b462c8fe25ceb10b6fba8cba241933a0c808909f012d460b48417d",
          "blockNumber": "0x35dfb17",
          "transactionHash": "0x4fd8d5df1fe09f869e8dc70332b07baeaf4192354e29c94e438f1c6fe55314c6",
          "transactionIndex": "0x49",
          "logIndex": "0x23f",
          "removed": false
        },
        {
          "address": "0x807D436d4fCff349B2733d9d67E14c662eB285d6",
          "topics": [
            "0x77acf75e237f9aae98f997395832d522bdb695e4a9bd07704936aa889a3667d1"
          ],
          "data": "0x0000000000000000000000000000000000000000000000056bc75e2d63100000",
          "blockHash": "0xdaa1651ae1b462c8fe25ceb10b6fba8cba241933a0c808909f012d460b48417d",
          "blockNumber": "0x35dfb17",
          "transactionHash": "0x4fd8d5df1fe09f869e8dc70332b07baeaf4192354e29c94e438f1c6fe55314c6",
          "transactionIndex": "0x49",
          "logIndex": "0x240",
          "removed": false
        },
        {
          "address": "0x0000000000000000000000000000000000001010",
          "topics": [
            "0x4dfe1bbbcf077ddc3e01291eea2d5c70c2b422b415d95645b9adcfd678cb1d63",
            "0x0000000000000000000000000000000000000000000000000000000000001010",
            "0x0000000000000000000000006fec51b4a3f9c68e45822b6c8adcac3a2863f133",
            "0x000000000000000000000000eedba2484aaf940f37cd3cd21a5d7c4a7dafbfc0"
          ],
          "data": "0x0000000000000000000000000000000000000000000000000006b47d4615a800000000000000000000000000000000000000000000000000666c4147d8fd1a0300000000000000000000000000000000000000000001242fab69b3e52ccad10800000000000000000000000000000000000000000000000066658cca92e7720300000000000000000000000000000000000000000001242fab70686272e07908",
          "blockHash": "0xdaa1651ae1b462c8fe25ceb10b6fba8cba241933a0c808909f012d460b48417d",
          "blockNumber": "0x35dfb17",
          "transactionHash": "0x4fd8d5df1fe09f869e8dc70332b07baeaf4192354e29c94e438f1c6fe55314c6",
          "transactionIndex": "0x49",
          "logIndex": "0x241",
          "removed": false
        }
      ],
      "status": "0x1",
      "logsBloom": "0x00000000000020000000000002000000000000000000000000040000000000000000000000080080040000000000000000008020020000000000000000000000000000000000000000000008000000800000000000000000000100000000000000000000000000000000000000000000000000000100000080000010000000000000004002000000000000000000000000000020000000000000000000000000200000004000000000000000040000040000000000000000000020000000004000000002000000000001000000000000000000000000000000100000000000000000000000000000000000000010000000000000000000000000000000100000",
      "type": "0x2",
      "effectiveGasPrice": "0x76aa75a8e"
    },
    {
      "transactionHash": "0x71f672fced3c7d4756d906e5ffb38bd43e83bcc6a360c87ce12672e821b78059",
      "transactionIndex": "0x4a",
      "blockHash": "0xdaa1651ae1b462c8fe25ceb10b6fba8cba241933a0c808909f012d460b48417d",
      "blockNumber": "0x35dfb17",
      "from": "0x6FEC51b4a3F9c68E45822B6C8aDcac3A2863f133",
      "to": "0x807D436d4fCff349B2733d9d67E14c662eB285d6",
      "cumulativeGasUsed": "0x9ec2c5",
      "gasUsed": "0x6974",
      "contractAddress": null,
      "logs": [
        {
          "address": "0x807D436d4fCff349B2733d9d67E14c662eB285d6",
          "topics": [
            "0x6b361c807733cc94a3b7bda39c1c94dcc0511e91aa47b0f7f918068e93976890"
          ],
          "data": "0x0000000000000000000000000000000000000000000000000de0b6b3a7640000",
          "blockHash": "0xdaa1651ae1b462c8fe25ceb10b6fba8cba241933a0c808909f012d460b48417d",
          "blockNumber": "0x35dfb17",
          "transactionHash": "0x71f672fced3c7d4756d906e5ffb38bd43e83bcc6a360c87ce12672e821b78059",
          "transactionIndex": "0x4a",
          "logIndex": "0x242",
          "removed": false
        },
        {
          "address": "0x0000000000000000000000000000000000001010",
          "topics": [
            "0x4dfe1bbbcf077ddc3e01291eea2d5c70c2b422b415d95645b9adcfd678cb1d63",
            "0x0000000000000000000000000000000000000000000000000000000000001010",
            "0x0000000000000000000000006fec51b4a3f9c68e45822b6c8adcac3a2863f133",
            "0x000000000000000000000000eedba2484aaf940f37cd3cd21a5d7c4a7dafbfc0"
          ],
          "data": "0x0000000000000000000000000000000000000000000000000002e094e1b5f000000000000000000000000000000000000000000000000000666522b4871dfe9f00000000000000000000000000000000000000000001242fab70686272e079080000000000000000000000000000000000000000000000006662421fa5680e9f00000000000000000000000000000000000000000001242fab7348f754966908",
          "blockHash": "0xdaa1651ae1b462c8fe25ceb10b6fba8cba241933a0c808909f012d460b48417d",
          "blockNumber": "0x35dfb17",
          "transactionHash": "0x71f672fced3c7d4756d906e5ffb38bd43e83bcc6a360c87ce12672e821b78059",
          "transactionIndex": "0x4a",
          "logIndex": "0x243",
          "removed": false
        }
      ],
      "status": "0x1",
      "logsBloom": "0x00000000000000000000000000000000000000000000000000000000000000010000000000000000000000000000000000008000020000000000000000000000000000000000000000000000000000800000000000000000000100000000000000000000000000000000000000000000000000000100000080000000000000000000004002000000000000000000000000000020000000000000000000000000200000004000000000000100000000000000000000000000200020000000004000000000000000000001000000000000000000000000000000100000000000000000000000000000000000000010000000000000000000000000000000100000",
      "type": "0x2",
      "effectiveGasPrice": "0x76aa75a8e"
    }
  ],
  "libraries": [],
  "pending": [],
  "returns": {},
  "timestamp": 1714645661,
  "chain": 137,
  "commit": "ce1cf17"
}