{
  "transactions": [
    {
      "hash": "0x61c617244f4e44d8f6f2845aaac0928afe6d3d7c06fded87660f53fd498636ca",
      "transactionType": "CALL",
      "contractName": null,
      "contractAddress": "0x2C12242E94d85153135e645b3c7e9FC39a9356e8",
      "function": "withdrawUSDT(uint256)",
      "arguments": [
        "2000000"
      ],
      "transaction": {
        "type": "0x02",
        "from": "0x6fec51b4a3f9c68e45822b6c8adcac3a2863f133",
        "to": "0x2c12242e94d85153135e645b3c7e9fc39a9356e8",
        "gas": "0xf8d2",
        "value": "0x0",
        "data": "0x3ea521ef00000000000000000000000000000000000000000000000000000000001e8480",
        "nonce": "0x14d",
        "accessList": []
      },
      "additionalContracts": [],
      "isFixedGasLimit": false
    }
  ],
  "receipts": [
    {
      "transactionHash": "0x61c617244f4e44d8f6f2845aaac0928afe6d3d7c06fded87660f53fd498636ca",
      "transactionIndex": "0x41",
      "blockHash": "0xd862d2799b0a29cf53d7992232480d8e1692a68e54d1ca6421f785bbc802fb86",
      "blockNumber": "0x35dfe47",
      "from": "0x6FEC51b4a3F9c68E45822B6C8aDcac3A2863f133",
      "to": "0x2C12242E94d85153135e645b3c7e9FC39a9356e8",
      "cumulativeGasUsed": "0x949236",
      "gasUsed": "0xaa23",
      "contractAddress": null,
      "logs": [
        {
          "address": "0xc2132D05D31c914a87C6611C10748AEb04B58e8F",
          "topics": [
            "0xddf252ad1be2c89b69c2b068fc378daa952ba7f163c4a11628f55a4df523b3ef",
            "0x0000000000000000000000002c12242e94d85153135e645b3c7e9fc39a9356e8",
            "0x0000000000000000000000006fec51b4a3f9c68e45822b6c8adcac3a2863f133"
          ],
          "data": "0x00000000000000000000000000000000000000000000000000000000001e8480",
          "blockHash": "0xd862d2799b0a29cf53d7992232480d8e1692a68e54d1ca6421f785bbc802fb86",
          "blockNumber": "0x35dfe47",
          "transactionHash": "0x61c617244f4e44d8f6f2845aaac0928afe6d3d7c06fded87660f53fd498636ca",
          "transactionIndex": "0x41",
          "logIndex": "0x12c",
          "removed": false
        },
        {
          "address": "0x2C12242E94d85153135e645b3c7e9FC39a9356e8",
          "topics": [
            "0x7fca92c9929b53120be04d990950b67da0dc00465c2b07a3a9c7d7c7f4d7d26a"
          ],
          "data": "0x00000000000000000000000000000000000000000000000000000000001e8480",
          "blockHash": "0xd862d2799b0a29cf53d7992232480d8e1692a68e54d1ca6421f785bbc802fb86",
          "blockNumber": "0x35dfe47",
          "transactionHash": "0x61c617244f4e44d8f6f2845aaac0928afe6d3d7c06fded87660f53fd498636ca",
          "transactionIndex": "0x41",
          "logIndex": "0x12d",
          "removed": false
        },
        {
          "address": "0x0000000000000000000000000000000000001010",
          "topics": [
            "0x4dfe1bbbcf077ddc3e01291eea2d5c70c2b422b415d95645b9adcfd678cb1d63",
            "0x0000000000000000000000000000000000000000000000000000000000001010",
            "0x0000000000000000000000006fec51b4a3f9c68e45822b6c8adcac3a2863f133",
            "0x0000000000000000000000007c7379531b2aee82e4ca06d4175d13b9cbeafd49"
          ],
          "data": "0x0000000000000000000000000000000000000000000000000004a4642918840000000000000000000000000000000000000000000000000065d9034dc51bad5d00000000000000000000000000000000000000000002f54ede468caa15bfc49800000000000000000000000000000000000000000000000065d45ee99c03295d00000000000000000000000000000000000000000002f54ede4b310e3ed84898",
          "blockHash": "0xd862d2799b0a29cf53d7992232480d8e1692a68e54d1ca6421f785bbc802fb86",
          "blockNumber": "0x35dfe47",
          "transactionHash": "0x61c617244f4e44d8f6f2845aaac0928afe6d3d7c06fded87660f53fd498636ca",
          "transactionIndex": "0x41",
          "logIndex": "0x12e",
          "removed": false
        }
      ],
      "status": "0x1",
      "logsBloom": "0x00000000000000000000000000000004000000000000000000000000000000400000000000000000000000000000000100008000020000000000000000000000000000000000000000000008000000800000000000400000000100000000000000000000000000000100000000020000000000002000000080000010000000000000000000080000000000000000000000000020000000000000000000000000200000000000000000000000000000000000000000000000000000000000004800000002000000000001000000000001400000000000000000100000000000000800000000000000000000000000000000004000000000000000000000100000",
      "type": "0x2",
      "effectiveGasPrice": "0x8f96cb4b9"
    }
  ],
  "libraries": [],
  "pending": [],
  "returns": {},
  "timestamp": 1714647653,
  "chain": 137,
  "commit": "ce1cf17"
}