{
  "transactions": [
    {
      "hash": "0xc42bd0073f31cf649b16aa5e9aa402fac14ecece7c28965878237dec30de0997",
      "transactionType": "CALL",
      "contractName": null,
      "contractAddress": "0x807D436d4fCff349B2733d9d67E14c662eB285d6",
      "function": "withdrawUSDT(uint256)",
      "arguments": [
        "2000000"
      ],
      "transaction": {
        "type": "0x02",
        "from": "0x6fec51b4a3f9c68e45822b6c8adcac3a2863f133",
        "to": "0x807d436d4fcff349b2733d9d67e14c662eb285d6",
        "gas": "0xf8d2",
        "value": "0x0",
        "data": "0x3ea521ef00000000000000000000000000000000000000000000000000000000001e8480",
        "nonce": "0x148",
        "accessList": []
      },
      "additionalContracts": [],
      "isFixedGasLimit": false
    }
  ],
  "receipts": [
    {
      "transactionHash": "0xc42bd0073f31cf649b16aa5e9aa402fac14ecece7c28965878237dec30de0997",
      "transactionIndex": "0x34",
      "blockHash": "0x0b6806299fb400fb6927eea0a0e16389e4b537c6cce7bca020d17f2894fff9fa",
      "blockNumber": "0x35dfd54",
      "from": "0x6FEC51b4a3F9c68E45822B6C8aDcac3A2863f133",
      "to": "0x807D436d4fCff349B2733d9d67E14c662eB285d6",
      "cumulativeGasUsed": "0xc79704",
      "gasUsed": "0xaa23",
      "contractAddress": null,
      "logs": [
        {
          "address": "0xc2132D05D31c914a87C6611C10748AEb04B58e8F",
          "topics": [
            "0xddf252ad1be2c89b69c2b068fc378daa952ba7f163c4a11628f55a4df523b3ef",
            "0x000000000000000000000000807d436d4fcff349b2733d9d67e14c662eb285d6",
            "0x0000000000000000000000006fec51b4a3f9c68e45822b6c8adcac3a2863f133"
          ],
          "data": "0x00000000000000000000000000000000000000000000000000000000001e8480",
          "blockHash": "0x0b6806299fb400fb6927eea0a0e16389e4b537c6cce7bca020d17f2894fff9fa",
          "blockNumber": "0x35dfd54",
          "transactionHash": "0xc42bd0073f31cf649b16aa5e9aa402fac14ecece7c28965878237dec30de0997",
          "transactionIndex": "0x34",
          "logIndex": "0xe6",
          "removed": false
        },
        {
          "address": "0x807D436d4fCff349B2733d9d67E14c662eB285d6",
          "topics": [
            "0x7fca92c9929b53120be04d990950b67da0dc00465c2b07a3a9c7d7c7f4d7d26a"
          ],
          "data": "0x00000000000000000000000000000000000000000000000000000000001e8480",
          "blockHash": "0x0b6806299fb400fb6927eea0a0e16389e4b537c6cce7bca020d17f2894fff9fa",
          "blockNumber": "0x35dfd54",
          "transactionHash": "0xc42bd0073f31cf649b16aa5e9aa402fac14ecece7c28965878237dec30de0997",
          "transactionIndex": "0x34",
          "logIndex": "0xe7",
          "removed": false
        },
        {
          "address": "0x0000000000000000000000000000000000001010",
          "topics": [
            "0x4dfe1bbbcf077ddc3e01291eea2d5c70c2b422b415d95645b9adcfd678cb1d63",
            "0x0000000000000000000000000000000000000000000000000000000000001010",
            "0x0000000000000000000000006fec51b4a3f9c68e45822b6c8adcac3a2863f133",
            "0x000000000000000000000000959c65b72147faf3450d8b50a0de57e72ffc5e0d"
          ],
          "data": "0x0000000000000000000000000000000000000000000000000004ab4ce029db78000000000000000000000000000000000000000000000000664fd0891a8caf7900000000000000000000000000000000000000000000054daea871fb7374f008000000000000000000000000000000000000000000000000664b253c3a62d40100000000000000000000000000000000000000000000054daead1d48539ecb80",
          "blockHash": "0x0b6806299fb400fb6927eea0a0e16389e4b537c6cce7bca020d17f2894fff9fa",
          "blockNumber": "0x35dfd54",
          "transactionHash": "0xc42bd0073f31cf649b16aa5e9aa402fac14ecece7c28965878237dec30de0997",
          "transactionIndex": "0x34",
          "logIndex": "0xe8",
          "removed": false
        }
      ],
      "status": "0x1",
      "logsBloom": "0x00000000000000000000000002000004000000000000000000000000000000000000000000000080000000000000000100008800020000000000000000000000000000000000000000000008000000800000000000000000000100000000000000000000000000000000000000020000000000000000000080000010000000000000000002080000000000000000000000000020000000000000000000000000200000004000000000000000040000000000000000000000000000000000004800000002000000000001000000000000400000000000000000100000020000000000000000000000000000000010000002000000000000000000000000100000",
      "type": "0x2",
      "effectiveGasPrice": "0xa09329c40"
    }
  ],
  "libraries": [],
  "pending": [],
  "returns": {},
  "timestamp": 1714647104,
  "chain": 137,
  "commit": "ce1cf17"
}